:020000040800F2
:1000000068060020890100080905000805040008A9
:100010009104000843020008B90B0008000000002A
:10002000000000000000000000000000510900086E
:10003000450200080000000015090008090A000830
:10004000A3010008A3010008A3010008A301000800
:10005000A3010008A301000881020008DD020008D6
:10006000A3010008A3010008A3010008A3010008E0
:10007000A3010008A3010008A3010008A3010008D0
:10008000A3010008A3010008A3010008A3010008C0
:10009000A3010008A3010008A3010008A3010008B0
:1000A000A3010008A3010008A3010008A3010008A0
:1000B000A3010008A3010008A3010008A301000890
:1000C000A3010008A3010008A3010008A301000880
:1000D000A3010008A3010008A3010008A301000870
:1000E000B5020008A3010008A301000800F002F80F
:1000F00000F03AF80AA090E8000C82448344AAF188
:100100000107DA4501D100F02FF8AFF2090EBAE885
:100110000F0013F0010F18BFFB1A43F0010318473B
:10012000E010000000110000103A24BF78C878C128
:10013000FAD8520724BF30C830C144BF04680C60ED
:10014000704700000023002400250026103A28BF35
:1001500078C1FBD8520728BF30C148BF0B60704739
:100160001FB51FBD10B510BD00F031F81146FFF7E7
:10017000F7FF00F023FD00F04FF803B4FFF7F2FFA4
:1001800003BC00F057F800000948804709480047C1
:10019000FEE7FEE7FEE7FEE7FEE7FEE7FEE7FEE737
:1001A000FEE7FEE704480549054A064B7047000094
:1001B0000D0A0008ED000008680000206806002015
:1001C000680200206802002070477047704775463B
:1001D00000F02CF8AE4605006946534620F00700B3
:1001E000854618B020B5FFF7DDFFBDE820404FF091
:1001F00000064FF000074FF000084FF0000B21F011
:100200000701AC46ACE8C009ACE8C009ACE8C009DD
:10021000ACE8C0098D46704710B50446AFF30080C6
:100220002046BDE81040FFF7A8BF00000048704717
:100230000800002001491820ABBEFEE7260002009E
:100240007047FEE7704700B502464FF47A7302E04C
:10025000184600F004F8521E501CF9D100BD00EB06
:10026000C000C1004FF0E020416100218161052103
:1002700001610169C903FCD50421016170470000D7
:1002800010B5012000F04AF801280DD101210748DE
:1002900000F0A7F818B906480188491E0180BDE89A
:1002A0001040012000F034B810BD0000000C0140E7
:1002B0000200002010B54FF48044204600F02EF8D4
:1002C000012808D104480188491C01802046BDE866
:1002D000104000F01DB810BD0000002010B5022035
:1002E00000F01CF801280DD10221074800F079F830
:1002F00018B906480188491C0180BDE81040022059
:1003000000F006B810BD0000000C01400200002003
:1003100001490860704700001404014001460020B4
:10032000054A12680A40044B14331B680B4202D082
:10033000002A00D001207047000401402DE9F0415F
:100340000022CC7804F00F03E40601D58C78234317
:100350000C784FF00F0714F0FF0F4FF0010C1CD07A
:1003600005680CFA02F40E882640A64211D19600C8
:1003700007FA06F825EA080503FA06F848EA05052B
:10038000CE78282E02D0482E02D002E0446100E050
:100390000461521C082AE4D305600A88FF2A1ED98A
:1003A0004568002202F108060CFA06F40E88264081
:1003B000A64210D1960007FA06F825EA080503FAC6
:1003C00006F848EA0505CE78282E00D14461CE789B
:1003D000482E00D10461521C082AE3D34560BDE8D1
:1003E000F0810246002092680A4200D00120704746
:1003F0004161704701617047002A01D00161704777
:1004000041617047FEE7000070B50024144D0221E1
:100410002846FFF7E6FF60B91420FFF714FF02211A
:100420002846FFF7DEFF0028F9D01420FFF70BFF66
:1004300001244FF4006631462846FFF7D2FF60B929
:100440001420FFF700FF31462846FFF7CAFF0028B7
:10045000F9D01420FFF7F7FE0224204670BD0000FB
:10046000000C014008B50121082000F063FA482083
:100470008DF8030040F60200ADF8000003208DF86F
:10048000020069460148FFF759FF08BD000C014012
:10049000FEE7000008B50121042000F04BFA10200F
:1004A0008DF803003020ADF8000003208DF8020025
:1004B00069460348FFF742FF00F0E4F908BD000079
:1004C0000008014070B504460E4D002C0CDD1021D3
:1004D0002846FFF78FFF20212846FFF789FFA0B2AB
:1004E000BDE8704000F0C9B910212846FFF780FF31
:1004F00020212846FFF77EFF6042BDE8704080B2B1
:1005000000F0BBB9000801407047000038B5102466
:100510008DF8034003208DF802008020ADF8000024
:100520000C4D69462846FFF709FF4021ADF8001041
:100530008DF8034069462846FFF700FF002240215E
:100540002846FFF759FF012280212846FFF754FF74
:1005500038BD0000000C014070B500250021284680
:1005600000F0F8F80024002000F076F9641CE4B2F2
:10057000802CF8D36D1CEDB2082DEFD370BD0000B8
:10058000F8B50121082000F0D5F914208DF80300FA
:1005900003208DF802004FF48074ADF800400B4E3C
:1005A00069463046FFF7CAFE6500ADF8005069465F
:1005B0003046FFF7C3FE012221463046FFF71CFFFD
:1005C000012229463046FFF717FFF8BD000C014015
:1005D0002DE9F04707460024134D4FF080094FF4F2
:1005E0000078AE1529FA04F23A4041462846FFF752
:1005F00003FF012231462846FFF7FEFE0022314666
:100600002846FFF7F9FE641CE4B2082CEAD3012265
:1006100031462846FFF7F0FE31462846BDE8F04750
:100620000022FFF7E9BE0000000C014070B5012276
:100630000B4D540221462846FFF7DEFE012216022A
:1006400031462846FFF7D8FE002221462846FFF70C
:10065000D3FE31462846BDE870400022FFF7CCBEED
:10066000000C014070B50A4D4FF400740022214681
:100670002846FFF7C1FE012211022846FFF7BCFE03
:1006800021462846BDE870400122FFF7B5BE0000B4
:10069000000C014010B500214FF47A720020401C7C
:1006A0009042FCD3491C9142F8D3FFF769FFFFF752
:1006B0002DFFAE2000F0BFF8D52000F0BCF8802060
:1006C00000F0B9F8A82000F0B6F83F2000F0B3F829
:1006D000D32000F0B0F8002000F0ADF8402000F08A
:1006E000AAF8A12000F0A7F8C82000F0A4F8DA20AA
:1006F00000F0A1F8122000F09EF8812000F09BF895
:10070000CF2000F098F8D92000F095F8F12000F003
:1007100092F8DB2000F08FF8302000F08CF8A42055
:1007200000F089F8A62000F086F88D2000F083F80C
:10073000142000F080F8AF2000F07DF8BDE81040F4
:10074000FFF70ABF0346012000E05843491E4A1C38
:10075000FBD1704710B50C4640F0B00000F06BF8CC
:10076000102040EA141000F066F804F00F00BDE815
:10077000104000F060B800002DE9F0411546491E18
:10078000461ECF007006F9B2000EFFF7E3FF00240B
:100790000E48203D00EB0515285D00F05DF8641C57
:1007A000E4B2082CF8D3012000EB4600F9B2C0B245
:1007B000FFF7D0FF00242819007A00F04DF8641CE0
:1007C000E4B2082CF7D3BDE8F0810000100C00085B
:1007D0002DE9F04781460F4690461E4600240A2523
:1007E00012E0311B491E0A20FFF7ACFFB8FBF0F204
:1007F000B2FBF5F005FB10223819C1B23032484681
:10080000FFF7BAFF641CE4B2B442EAD3BDE8F08754
:100810002DE9F04107460D461646002406E028194A
:10082000C1B23846FFF7A8FF641CE4B2325D002A6B
:10083000F5D1BDE8F08110B50446FFF7F7FE78204A
:10084000FFF7C6FE0020FFF7C3FE2046FFF7C0FEFD
:10085000BDE81040FFF706BF10B50446FFF7E6FEFF
:100860007820FFF7B5FE4020FFF7B2FE2046FFF7E5
:10087000AFFEBDE81040FFF7F5BE01464FF08040E7
:1008800000F04AB930B589B00121084600F044F8BB
:100890000121042000F04EF818208DF823000420D8
:1008A000ADF8200003208DF8220008A91848FFF7B2
:1008B00045FD4FF08045284600F0DCF80024ADF8F7
:1008C0001A40ADF816406321ADF818102321ADF899
:1008D00014108DF81C4005A9284600F01FF901A846
:1008E00000F010F96020ADF80400ADF80C400120D4
:1008F000ADF806005A20ADF80A0001A9284600F01C
:10090000BFF80121284600F0A9F809B030BD000069
:100910000008014070470000054A002903D0D16952
:100920000143D1617047D1698143D16170470000B3
:1009300000100240054A002903D0916901439161EA
:100940007047916981439161704700000010024037
:10095000704700F001B800000CB50022019200922F
:100960002748016841F4803101604FF4A0630168B9
:1009700001F4003100910199491C0191009911B9CC
:1009800001999942F3D10168890302D501210091AF
:1009900000E000920099012930D11A490A6842F01A
:1009A00010020A600A6822F003020A600A6842F034
:1009B00002020A604168416041684160416841F457
:1009C00080614160416821F47C114160416841F4DB
:1009D000E8114160016841F080710160016889019E
:1009E000FCD5416821F003014160416841F00201FA
:1009F00041604168C1F381010229FAD10CBD0000B8
:100A000000100240002002407047000010B50F485F
:100A1000016841F00101016041680D4A11404160E7
:100A200001680C4A11400160016821F480210160D5
:100A3000416821F4FE0141604FF41F018160FFF71E
:100A400088FF05494FF00060086010BD00100240AB
:100A50000000FFF8FFFFF6FE08ED00E0002904D0DB
:100A6000018841F0010101807047018821F00101F6
:100A700001807047018921F0070101817047000062
:100A800070B5028C22F480720284028C8388848B7D
:100A900024F0700424F003040D88254322F400722E
:100AA0000E894FF6FF7404EA062616434A8804EAC4
:100AB00002223243114EB04202D0114EB04217D141
:100AC00022F400664A8904EA0222324322F4806654
:100AD0008A8804EA0222324323F4805323F4005329
:100AE0008E8904EA06161E43CB8904EA03133343B6
:100AF00083808583C9888187028470BD002C014072
:100B0000003401400021018041808180C180018149
:100B100041818181C18170478187704730B50288EA
:100B20001B4C1C4DA0420DD0A8420BD0B0F1804F01
:100B300008D0194B984205D0184B984202D0184B58
:100B4000984203D122F070034A881A43154B984209
:100B500006D0154B984203D022F44073CA881A433A
:100B600002808A8882850A880285A0420AD0A8422B
:100B700008D00E4A904205D00D4A904202D00D4A4C
:100B8000904201D1097A01860121818230BD0000A5
:100B9000002C0140003401400004004000080040E7
:100BA000000C0040001000400014004000400140D4
:100BB0000044014000480140FEE70000FFF76AFDE5
:100BC000FFF768FCFFF74EFC01210EA20846FFF775
:100BD0001FFE00250D4CFFF717FC20700128FAD1ED
:100BE00060781430C0B26070642800D96570607895
:100BF00040B2FFF767FC0323627807210120FFF76B
:100C0000E7FDE8E753706565643A000004000020E2
:100C100000000000000000000000000000000000D4
:100C2000000000F800000000000000333000000069
:100C300000100C06100C0600000000000000000070
:100C400040C07840C0784000043F04043F040400E2
:100C5000007088FC08300000001820FF211E0000F2
:100C6000F008F000E018000000211C031E211E0007
:100C700000F00888700000001E212324192721108D
:100C800010160E0000000000000000000000000030
:100C9000000000E0180402000000000718204000D7
:100CA00000020418E00000000040201807000000C7
:100CB000404080F0804040000202010F010202002B
:100CC000000000F0000000000101011F010101000F
:100CD000000000000000000080B070000000000074
:100CE00000000000000000000001010101010101FD
:100CF0000000000000000000003030000000000094
:100D00000000000080601804006018060100000068
:100D100000E010080810E000000F102020100F0065
:100D2000001010F8000000000020203F20200000EC
:100D30000070080808887000003028242221300044
:100D400000300888884830000018202020110E004C
:100D50000000C02010F8000000070424243F2400F5
:100D600000F80888880808000019212020110E00CA
:100D700000E0108888180000000F112020110E00DC
:100D800000380808C83808000000003F00000000D4
:100D90000070880808887000001C222121221C0095
:100DA00000E010080810E0000000312222110F00BE
:100DB000000000C0C0000000000000303000000053
:100DC00000000080000000000000806000000000C3
:100DD00000008040201008000001020408102000DC
:100DE0004040404040404000040404040404040027
:100DF00000081020408000000020100804020100BC
:100E0000007048080808F0000000003036010000BB
:100E1000C030C828E810E0000718272423140B006E
:100E20000000C038E0000000203C230202273820E8
:100E300008F8888888700000203F202020110E00CC
:100E4000C0300808080838000718202020100800C3
:100E500008F808080810E000203F202020100F00AC
:100E600008F88888E8081000203F20202320180078
:100E700008F88888E8081000203F200003000000E0
:100E8000C03008080838000007182020221E020081
:100E900008F808000008F808203F210101213F2040
:100EA000000808F8080800000020203F202000006B
:100EB00000000808F8080800C08080807F0000005B
:100EC00008F888C028180800203F20012638200094
:100ED00008F8080000000000203F202020203000FB
:100EE00008F8F800F8F80800203F003F003F200015
:100EF00008F830C00008F808203F200007183F001D
:100F0000E01008080810E0000F10202020100F004B
:100F100008F808080808F000203F2101010100003E
:100F2000E01008080810E0000F18242438504F0083
:100F300008F8888888887000203F2000030C302043
:100F400000708808080838000038202121221C0081
:100F5000180808F8080818000000203F20000000CA
:100F600008F808000008F808001F202020201F00B3
:100F70000878880000C83808000007380E01000013
:100F8000F80800F80008F800033C0700073C0300DD
:100F9000081868808068180820302C03032C302043
:100FA0000838C800C83808000000203F20000000B2
:100FB00010080808C838080020382621202018000A
:100FC000000000FE020202000000007F40404000DE
:100FD000000C30C000000000000000010638C00016
:100FE00000020202FE000000004040407F000000BE
:100FF00000000402020204000000000000000000E3
:1010000000000000000000008080808080808080E0
:1010100000020204000000000000000000000000C8
:1010200000008080808000000019242222223F20BE
:1010300008F8008080000000003F112020110E0001
:101040000000008080800000000E11202020110090
:10105000000000808088F800000E112020103F2042
:101060000000808080800000001F222222221300C6
:10107000008080F0888888180020203F2020000011
:101080000000808080808000006B949494936000C6
:1010900008F8008080800000203F210000203F20D1
:1010A00000809898000000000020203F20200000D1
:1010B000000000809898000000C08080807F0000C1
:1010C00008F8000080808000203F24022D3020009E
:1010D000000808F8000000000020203F2020000049
:1010E0008080808080808000203F20003F20003F63
:1010F0008080008080800000203F210000203F2071
:101100000000808080800000001F202020201F0021
:10111000808000808000000080FFA12020110E0050
:101120000000008080808000000E112020A0FF8041
:10113000808080008080800020203F2120000100EE
:101140000000808080808000003324242424190043
:10115000008080E0808000000000001F2020000050
:101160008080000000808000001F202020103F2091
:10117000808080000080808000010E300806010021
:1011800080800080008080800F300C030C300F00C6
:1011900000808000808080000020312E0E312000F1
:1011A000808080000080808080818E701806010021
:1011B00000808080808080000021302C222130003F
:1011C00000000000807C020200000000003F404060
:1011D00000000000FF00000000000000FF00000011
:1011E0000002027C800000000040403F0000000040
:1011F00000060101020204040000000000000000DB
:10120000201200080000002008000000280100084B
:1012100028120008080000206006000044010008B1
:081220000000000000000000C6
:04000005080000ED02
:00000001FF
