:020000040800F2
:100000006806002089010008830400087F040008B6
:100010008104000891030008310900080000000075
:10002000000000000000000000000000250800089B
:100030009303000800000000F3070008DD08000833
:10004000A3010008A3010008A3010008A301000800
:10005000A3010008A3010008A3010008A3010008F0
:10006000A3010008A3010008A3010008A3010008E0
:10007000A3010008A3010008A3010008A3010008D0
:10008000A3010008A3010008A3010008A3010008C0
:10009000A3010008A3010008A3010008A3010008B0
:1000A000A3010008A3010008A3010008A3010008A0
:1000B000A3010008A3010008A3010008A301000890
:1000C000A3010008A3010008A3010008A301000880
:1000D000A3010008A3010008A3010008A301000870
:1000E000A3010008A3010008A301000800F002F822
:1000F00000F03AF80AA090E8000C82448344AAF188
:100100000107DA4501D100F02FF8AFF2090EBAE885
:100110000F0013F0010F18BFFB1A43F0010318473B
:100120000815000028150000103A24BF78C878C1CF
:10013000FAD8520724BF30C830C144BF04680C60ED
:10014000704700000023002400250026103A28BF35
:1001500078C1FBD8520728BF30C148BF0B60704739
:100160001FB51FBD10B510BD00F031F81146FFF7E7
:10017000F7FF00F0DFFB00F04FF803B4FFF7F2FFEA
:1001800003BC00F057F800000948804709480047C1
:10019000FEE7FEE7FEE7FEE7FEE7FEE7FEE7FEE737
:1001A000FEE7FEE704480549054A064B7047000094
:1001B000E1080008ED000008680000206806002043
:1001C000680200206802002070477047704775463B
:1001D00000F02CF8AE4605006946534620F00700B3
:1001E000854618B020B5FFF7DDFFBDE820404FF091
:1001F00000064FF000074FF000084FF0000B21F011
:100200000701AC46ACE8C009ACE8C009ACE8C009DD
:10021000ACE8C0098D46704710B50446AFF30080C6
:100220002046BDE81040FFF7A8BF00000048704717
:100230000800002001491820ABBEFEE7260002009E
:100240007047002904D0816841F001018160704746
:10025000816821F0010181607047014600208968B2
:10026000490700D501207047C06C80B27047014635
:1002700000208968090700D50120704710B5426841
:100280000E4B1A400C790B6842EA04221343436078
:1002900082680B4B1A40D1E9024323434C7942EA6E
:1002A000440213438360C26A22F47002097C491E2F
:1002B000C9B242EA0151C16210BD0000FFFEF0FF69
:1002C000FDF7F1FF816841F0080181607047002966
:1002D00004D0816841F4A00181607047816821F4F5
:1002E000A00181607047816841F00401816070471E
:1002F0000148FFF7B9BF00000024014030B587B0C6
:100300000121480200F080FA0121042000F07CFA6B
:100310004FF4004000F06EFA00248DF81B400125D8
:10032000ADF8185003208DF81A0006A9164800F001
:100330004DF8019404944FF4602003908DF8095017
:100340008DF808408DF81450104C01A92046FFF795
:1003500095FF01212046FFF774FF2046FFF7B2FF0B
:100360002046FFF784FF0128FAD02046FFF7BBFFA5
:100370002046FFF772FF0128FAD001212046FFF73F
:10038000A6FF07B030BD0000000801400024014076
:10039000FEE7704700B502464FF47A7302E0184654
:1003A00000F004F8521E501CF9D100BD00EBC00053
:1003B000C1004FF0E0204161002181610521016110
:1003C0000169C903FCD50421016170472DE9F041A1
:1003D0000022CC7804F00F03E40601D58C78234387
:1003E0000C784FF00F0714F0FF0F4FF0010C1CD0EA
:1003F00005680CFA02F40E882640A64211D1960038
:1004000007FA06F825EA080503FA06F848EA05059A
:10041000CE78282E02D0482E02D002E0446100E0BF
:100420000461521C082AE4D305600A88FF2A1ED9F9
:100430004568002202F108060CFA06F40E882640F0
:10044000A64210D1960007FA06F825EA080503FA35
:1004500006F848EA0505CE78282E00D14461CE780A
:10046000482E00D10461521C082AE3D34560BDE840
:10047000F081002A01D00161704741617047FEE7B9
:10048000FEE7704738B510248DF8034003208DF83F
:1004900002008020ADF800000C4D69462846FFF7A9
:1004A00095FF4021ADF800108DF8034069462846BD
:1004B000FFF78CFF002240212846FFF7DAFF0122D8
:1004C00080212846FFF7D5FF38BD0000000C014011
:1004D00070B500250021284600F0F8F8002400201F
:1004E00000F076F9641CE4B2802CF8D36D1CEDB2F8
:1004F000082DEFD370BD0000F8B50121082000F0F1
:1005000083F914208DF8030003208DF802004FF4C6
:100510008074ADF800400B4E69463046FFF756FF39
:100520006500ADF8005069463046FFF74FFF0122E5
:1005300021463046FFF79DFF012229463046FFF74E
:1005400098FFF8BD000C01402DE9F0470746002454
:10055000134D4FF080094FF40078AE1529FA04F2DC
:100560003A4041462846FFF784FF0122314628469B
:10057000FFF77FFF002231462846FFF77AFF641C11
:10058000E4B2082CEAD3012231462846FFF771FF76
:1005900031462846BDE8F0470022FFF76ABF000059
:1005A000000C014070B501220B4D54022146284633
:1005B000FFF75FFF0122160231462846FFF759FF79
:1005C000002221462846FFF754FF31462846BDE861
:1005D00070400022FFF74DBF000C014070B50A4D7E
:1005E0004FF40074002221462846FFF742FF012203
:1005F00011022846FFF73DFF21462846BDE870401E
:100600000122FFF736BF0000000C014010B50021A9
:100610004FF47A720020401C9042FCD3491C914256
:10062000F8D3FFF769FFFFF72DFFAE2000F0BFF80A
:10063000D52000F0BCF8802000F0B9F8A82000F028
:10064000B6F83F2000F0B3F8D32000F0B0F8002057
:1006500000F0ADF8402000F0AAF8A12000F0A7F8C3
:10066000C82000F0A4F8DA2000F0A1F8122000F071
:100670009EF8812000F09BF8CF2000F098F8D92058
:1006800000F095F8F12000F092F8DB2000F08FF8F0
:10069000302000F08CF8A42000F089F8A62000F0AB
:1006A00086F88D2000F083F8142000F080F8AF2049
:1006B00000F07DF8BDE81040FFF70ABF03460120B7
:1006C00000E05843491E4A1CFBD1704710B50C4648
:1006D00040F0B00000F06BF8102040EA141000F079
:1006E00066F804F00F00BDE8104000F060B80000AC
:1006F0002DE9F0411546491E461ECF007006F9B29D
:10070000000EFFF7E3FF00240E48203D00EB051527
:10071000285D00F05DF8641CE4B2082CF8D30120D9
:1007200000EB4600F9B2C0B2FFF7D0FF0024281951
:10073000007A00F04DF8641CE4B2082CF7D3BDE851
:10074000F0810000381000082DE9F04781460F467F
:1007500090461E4600240A2512E0311B491E0A203D
:10076000FFF7ACFFB8FBF0F2B2FBF5F005FB10228F
:100770003819C1B230324846FFF7BAFF641CE4B200
:10078000B442EAD3BDE8F0872DE9F04107460D46B3
:100790001646002406E02819C1B23846FFF7A8FF24
:1007A000641CE4B2325D002AF5D1BDE8F08110B5D9
:1007B0000446FFF7F7FE7820FFF7C6FE0020FFF79C
:1007C000C3FE2046FFF7C0FEBDE81040FFF706BF9E
:1007D00010B50446FFF7E6FE7820FFF7B5FE40208F
:1007E000FFF7B2FE2046FFF7AFFEBDE81040FFF76F
:1007F000F5BE7047034A516821F4404101435160FE
:100800007047000000100240054A002903D091699A
:100810000143916170479169814391617047000084
:1008200000100240704700F001B800000CB5002233
:10083000019200922748016841F4803101604FF431
:10084000A063016801F4003100910199491C0191F4
:10085000009911B901999942F3D10168890302D530
:100860000121009100E000920099012930D11A493C
:100870000A6842F010020A600A6822F003020A6065
:100880000A6842F002020A604168416041684160C2
:10089000416841F480614160416821F47C1141600C
:1008A000416841F4E8114160016841F080710160E4
:1008B00001688901FCD5416821F00301416041686C
:1008C00041F0020141604168C1F381010229FAD17E
:1008D0000CBD0000001002400020024070470000E4
:1008E00010B50F48016841F00101016041680D4AEF
:1008F0001140416001680C4A11400160016821F417
:1009000080210160416821F4FE0141604FF41F0124
:100910008160FFF788FF05494FF00060086010BD57
:10092000001002400000FFF8FFFFF6FE08ED00E0B7
:10093000FEE70000FFF76AFEFFF7E0FC012124A2BA
:100940000846FFF721FF25A201210220FFF71CFF27
:10095000264C274F4FF06638DFF89890DFF898A0C4
:100960006426FFF7C5FC20800546284600F084FA7F
:10097000394600F09FF900F071F942464B4600F00D
:100980006FF800F03BF8606004232A46092101203B
:10099000FFF7DAFE606800F04FFA024601230921F2
:1009A0000220FFF7D1FE5146606800F079FA00F0AE
:1009B00043FA80B2B0FBF6F106FB110202230B21D1
:1009C0001846FFF7C1FE6420FFF7E4FCC9E700000A
:1009D000414456616C75653A00000000566F6C74B6
:1009E0006167653A302E303056000000000000206C
:1009F00000F07F4566660A400000C84221F00042D0
:100A0000A2F16052B2F5801F01F0004328BFD2F17D
:100A10007F6C0BD95FEA001C43EAC20242EB5070C4
:100A200018BF704728BF20F001007047B2F5801F43
:100A3000BCBF184670474FEA410C1CF5001F02D29C
:100A4000084600F0F4BA70B500F0B4F80000008970
:100A5000FFF7F6BF4FF00040A0F5800070470000A0
:100A6000DFF848C170B51CEA111E1EBF1CEA131541
:100A70009EEA0C0F95EA0C0F00F06F8081EA0304E8
:100A800023EA4C134EEAD47E21EA4C1141F4801142
:100A900043F48013AE44A1FB024CA0FB0365AEF10E
:100AA0007F7E361955EB0C05A1FB034C4CF100037E
:100AB000A0FB021C16EB0C06654153F10003094232
:100AC00018BF46F0010613F4007F0BD14FEA033143
:100AD0004FEA0530340341EA155140EA16506FF0F1
:100AE00003020AE04FEAC3214FEAC520F40241EABB
:100AF000555140EA56506FF0020202EB2E4201EBD4
:100B0000025585EACE710AD05FEA440C18BF24F082
:100B1000004450F1000041F1000120EAD47040F29D
:100B2000FE7C624500D270BDA84214BF4FF08044E5
:100B30004FF04044002E08BF0024BEF1806FA8BFD4
:100B4000A1F1C041BDE8704080F282804FF000000A
:100B500001F1C04101F0004170479EEA0C0F0CEA20
:100B6000131518BF95EA0C0F06D04FF0000081EA6C
:100B7000030E0EF0004170BD00F01CF88900013E2C
:100B800000F007B800F009B84FEA430C5FEA5C5C7C
:100B900008D081EA030100F05BB84FEA410C5FEA3C
:100BA0005C5CF6D14FF00000014970470000FF0780
:100BB0000000F87F0EF1020E2EF0030E5EF8046BBB
:100BC000364205D4012A43EB030515F5001F12D860
:100BD000012841EB010C1CF5001F0CD80ED14FEA87
:100BE000D17C15F5001F0CEB4C0C0CF1020C08BF6E
:100BF0004CEBD37C04E04FF0080C01E04FEAD37CCF
:100C00000CEB4C0526FA05F606F00706B6F1040CC7
:100C100006D20EEB860CBDE870404CF0010C60472C
:100C2000DFE80CF0090B02024FF000414FF000002A
:100C3000A1F5002170BD19461046012851EB0104B1
:100C400018BFD4F5001484BF002001F0004170BD2E
:100C50000808A0F500114FEA3101704743004FEA40
:100C6000D30C4FEA3C0C43401FBF40070CF16051CE
:100C700013F0FE4F70471CF0006F03D100200CF002
:100C8000004170470CF0004343EA507010B540EA51
:100C9000CC0000F086F900BF000000924FEA00018E
:100CA000FFF7D6BF4FF000414FF00000A1F5002143
:100CB000704700004FF47F0C1CEAD0121EBF1CEAE4
:100CC000D11392EA0C0F93EA0C0F00F0858090EAA2
:100CD000010F48BF42F4807240F4000C41F4000060
:100CE0002CF07F4120F07F4000B58142A2EB03024F
:100CF0000FF2081CACEB504EC0F100009EF800E073
:100D00004FEA4E0E00FB0EFC38BF49004FEA2C1C88
:100D100002F5FA020CFB0EF34FEACE1E4FEA112C3D
:100D20004FEAC1210EEB635E42EB22420EFB0CFC4C
:100D30004FEA1C5300FB03114FEA112C4FEA01311B
:100D40000EFB0CFC4FEADC4C00FB0C11C14228BF2F
:100D500009184CEB03335DF804EB10EB410143EB56
:100D6000C250B2F57C0F38BF704729D512F0F00F92
:100D70001CBF00F1C04000F000407047008182833A
:100D80008485868788898B8C8D8E8F91929395969A
:100D900097999A9C9D9FA0A2A3A5A7A8AAACAEB024
:100DA000B2B3B5B7B9BCBEC0C2C5C7C9CCCED1D429
:100DB000D7D9DCDFE2E6E9ECF0F3F7FAFE00000059
:100DC0004FEA400C0CF1807CBCF17E4F28BF70478D
:100DD000B0F1C04000F02BB990EA010F0CEAD1133A
:100DE00048BF42F48072624538BF634507D213F4AE
:100DF0007F0F16D080EA010000F00040704710B568
:100E000000F0CFF8097EFC3E00F005B880EA010052
:100E100000F00040704780EA010000F0004000F060
:100E200006B912F47F0F04BF0248704780EA010040
:100E300000F0FDB80000C07FC10DD1F19E0206DBBD
:100E40004FEA002343F0004323FA02F070470042C8
:100E500007D54FEA4001B1F1FE4F02D24FF000003A
:100E6000704710B500F09DF849922480002070472B
:100E70006FEA200070470000B0FA80F310FA03F226
:100E8000C3F19D030AD0D90501EB1220530638BFE8
:100E9000704700F1010008BF20F00100704700001A
:100EA0004FF47F0C1CEAD0121EBF1CEAD11392EA49
:100EB0000C0F93EA0C0F00F0478090EA010F48BF37
:100EC00042F480724FF0004C4CEA00204CEA0121C1
:100ED00002EB0302A0FB0113A2F50002002918BFD8
:100EE00043F001035B0028BF4FEA330342EB224289
:100EF0005FEA132C4CEBC2502EBFBCEB436FB2F534
:100F00007C0F70474FEA036CBCF1004F08BF20F024
:100F10000100B2F57C0F38BF70470BD582F0FF029D
:100F200012F5803FC8BF704700F1C040D8BF00F045
:100F30000040704700F5000C5FEA4C0C48BF70475A
:100F4000B0F1C04000F073B890EA010F0CEAD11381
:100F500048BF42F48072624538BF634504D280EADC
:100F6000010000F00040704710B500F01AF800BF13
:100F70008900013E00F007B800F009B85FEA410CB3
:100F80005FEA1C6C08D080EA010000F050B85FEA0C
:100F9000400C5FEA1C6CF6D14FF00040A0F58000D9
:100FA00070470EF1020E2EF0030E5EF8044B244241
:100FB00004D44FEA4102B2F17F4F11D84FEA400307
:100FC000B3F17F4F0CD80ED14FEAD07CB2F17F4FF6
:100FD0000CEB4C0C0CF1020C08BF4CEBD17C04E088
:100FE0004FF0080C01E04FEAD17C0CEB4C0324FAE3
:100FF00003F404F00704B4F1040C06D20EEB840CE5
:10100000BDE810404CF0010C6047DFE80CF0070829
:1010100002024FF00040A0F5800010BD08464200DB
:1010200018BFD2F1807288BF00F0004010BDFF21D0
:1010300041EAD050C00570470000000000000000E9
:101040000000000000000000000000F800000000A8
:10105000000000333000000000100C06100C0600E9
:10106000000000000000000040C07840C078400050
:10107000043F04043F040400007088FC08300000B2
:10108000001820FF211E0000F008F000E01800000A
:1010900000211C031E211E0000F0088870000000C3
:1010A0001E2123241927211010160E000000000015
:1010B0000000000000000000000000E01804020032
:1010C000000000071820400000020418E0000000A3
:1010D0000040201807000000404080F080404000A1
:1010E0000202010F01020200000000F000000000F7
:1010F0000101011F010101000000000000000000CB
:1011000080B070000000000000000000000000003F
:1011100000010101010101010000000000000000C8
:101120000030300000000000000000008060180463
:10113000006018060100000000E010080810E00040
:10114000000F102020100F00001010F80000000009
:101150000020203F20200000007008080888700050
:1011600000302824222130000030088888483000D0
:101170000018202020110E000000C02010F80000F0
:1011800000070424243F240000F808888808080089
:101190000019212020110E0000E01088881800009E
:1011A000000F112020110E0000380808C838080070
:1011B0000000003F000000000070880808887000F0
:1011C000001C222121221C0000E010080810E00071
:1011D0000000312222110F00000000C0C0000000FA
:1011E000000000303000000000000080000000001F
:1011F0000000806000000000000080402010080017
:1012000000010204081020004040404040404000DF
:1012100004040404040404000008102040800000BA
:101220000020100804020100007048080808F000BF
:101230000000003036010000C030C828E810E0008F
:101240000718272423140B000000C038E00000001A
:10125000203C23020227382008F888888870000084
:10126000203F202020110E00C03008080808380058
:10127000071820202010080008F808080810E000CF
:10128000203F202020100F0008F88888E808100070
:10129000203F20202320180008F88888E808100044
:1012A000203F200003000000C0300808083800007C
:1012B00007182020221E020008F808000008F8087D
:1012C000203F210101213F20000808F80808000004
:1012D0000020203F2020000000000808F808080037
:1012E000C08080807F00000008F888C028180800AF
:1012F000203F20012638200008F8080000000000E8
:10130000203F20202020300008F8F800F8F80800DE
:10131000203F003F003F200008F830C00008F808D8
:10132000203F200007183F00E01008080810E000E8
:101330000F10202020100F0008F808080808F000FF
:10134000203F210101010000E01008080810E00022
:101350000F18242438504F0008F8888888887000B7
:10136000203F2000030C3020007088080808380057
:101370000038202121221C00180808F8080818004D
:101380000000203F2000000008F808000008F808CE
:10139000001F202020201F000878880000C838087F
:1013A000000007380E010000F80800F80008F800F7
:1013B000033C0700073C0300081868808068180891
:1013C00020302C03032C30200838C800C83808000F
:1013D0000000203F2000000010080808C83808005E
:1013E0002038262120201800000000FE0202020002
:1013F0000000007F40404000000C30C000000000B2
:10140000000000010638C00000020202FE000000D9
:10141000004040407F00000000000402020204007F
:1014200000000000000000000000000000000000BC
:1014300080808080808080800002020400000000A4
:10144000000000000000000000008080808000009C
:101450000019242222223F2008F80080800000008A
:10146000003F112020110E0000000080808000004D
:10147000000E112020201100000000808088F8005C
:10148000000E112020103F2000008080808000008E
:10149000001F222222221300008080F088888818F2
:1014A0000020203F202000000000808080808000FD
:1014B000006B94949493600008F800808080000092
:1014C000203F210000203F2000809898000000006D
:1014D0000020203F2020000000000080989800009D
:1014E00000C08080807F000008F8000080808000BD
:1014F000203F24022D302000000808F800000000E2
:101500000020203F2020000080808080808080009C
:10151000203F20003F20003F80800080808000002E
:10152000203F210000203F200000808080800000BC
:10153000001F202020201F008080008080000000ED
:1015400080FFA12020110E0000000080808080001C
:10155000000E112020A0FF8080808000808080000D
:1015600020203F212000010000008080808080003A
:101570000033242424241900008080E080800000AF
:101580000000001F202000008080000000808000FC
:10159000001F202020103F2080808000008080805D
:1015A00000010E30080601008080008000808080ED
:1015B0000F300C030C300F00008080008080800012
:1015C0000020312E0E31200080808000008080803D
:1015D00080818E70180601000080808080808000ED
:1015E0000021302C2221300000000000807C02020B
:1015F00000000000003F404000000000FF0000002D
:1016000000000000FF0000000002027C80000000DB
:101610000040403F000000000006010102020404F7
:101620000000000000000000481600080000002034
:1016300008000000280100085016000808000020DB
:1016400060060000440100080000000000000000E7
:04000005080000ED02
:00000001FF
