:020000040800F2
:1000000068060020890100089505000831030008F2
:10001000C103000843020008350A00080000000080
:10002000000000000000000000000000350900088A
:10003000450200080000000019090008E109000855
:10004000A3010008A3010008A3010008A301000800
:10005000A3010008A3010008A3010008A3010008F0
:10006000A3010008A3010008A3010008A3010008E0
:10007000A3010008A3010008A3010008A3010008D0
:10008000A3010008A3010008A3010008A3010008C0
:10009000A3010008A3010008A3010008A3010008B0
:1000A000A3010008A3010008A3010008A3010008A0
:1000B000A3010008A3010008A3010008A301000890
:1000C000A3010008A3010008A3010008A301000880
:1000D000A3010008A3010008A3010008A301000870
:1000E000A3010008A3010008A301000800F002F822
:1000F00000F03AF80AA090E8000C82448344AAF188
:100100000107DA4501D100F02FF8AFF2090EBAE885
:100110000F0013F0010F18BFFB1A43F0010318473B
:100120007011000090110000103A24BF78C878C107
:10013000FAD8520724BF30C830C144BF04680C60ED
:10014000704700000023002400250026103A28BF35
:1001500078C1FBD8520728BF30C148BF0B60704739
:100160001FB51FBD10B510BD00F031F81146FFF7E7
:10017000F7FF00F061FC00F04FF803B4FFF7F2FF67
:1001800003BC00F057F800000948804709480047C1
:10019000FEE7FEE7FEE7FEE7FEE7FEE7FEE7FEE737
:1001A000FEE7FEE704480549054A064B7047000094
:1001B000E5090008ED00000868000020680600203E
:1001C000680200206802002070477047704775463B
:1001D00000F02CF8AE4605006946534620F00700B3
:1001E000854618B020B5FFF7DDFFBDE820404FF091
:1001F00000064FF000074FF000084FF0000B21F011
:100200000701AC46ACE8C009ACE8C009ACE8C009DD
:10021000ACE8C0098D46704710B50446AFF30080C6
:100220002046BDE81040FFF7A8BF00000048704717
:100230000400002001491820ABBEFEE726000200A2
:100240007047FEE7704700B502464FF47A7302E04C
:10025000184600F003F8521EFAD200BD00EBC000B1
:10026000C1004FF0E0204161002181610521016161
:100270000169C903FCD5042101617047F0B5CC7850
:10028000002204F00F03E40601D58C7823430C7898
:100290004FF00F0C14F0FF0F4FF0010E1BD005684C
:1002A0000E880EFA02F42640A64210D196000CFAEF
:1002B00006F725EA070703FA06F5CE783D43282E10
:1002C00002D0482E02D002E0446100E00461521CDA
:1002D000082AE5D305600A88FF2A1CD94468002251
:1002E00002F108060EFA06F50E882E40AE420ED137
:1002F00096000CFA06F7BC4303FA06F7CE783C43A7
:10030000282E00D14561CE78482E00D10561521CBF
:10031000082AE5D34460F0BD0246002092680A42F4
:1003200000D0012070470AB10161704741617047F8
:10033000FEE7000070B5164D4FF48066002431468C
:100340002846FFF7E9FF60B91420FFF77CFF31462C
:100350002846FFF7E1FF0028F9D01420FFF773FFCC
:1003600001244FF4006631462846FFF7D5FF60B9F7
:100370001420FFF768FF31462846FFF7CDFF00281D
:10038000F9D01420FFF75FFF0224204670BD000063
:10039000000C014008B50121082000F0BFFA4820F8
:1003A0008DF803004FF44060ADF8000003208DF895
:1003B000020069460148FFF761FF08BD000C0140DB
:1003C000FEE7000010B5012400220321204600F0C2
:1003D00021FA01220521104600F01CFA0222072111
:1003E000012000F017FA03220921012000F012FA7F
:1003F00004220321022000F00DFA052211460220FA
:1004000000F008FA06220721022000F003FA072272
:100410000921022000F0FEF903210E22084600F017
:10042000F9F90F220521032000F0F4F91022072129
:10043000032000F0EFF911220921032000F0EAF96E
:10044000FFF778FF012802D002281BD004E0641CCB
:10045000E4B2042C00D10124012C17D0022C1CD0B2
:10046000032CEDD1012113A2084600F020FA11A2BD
:100470000121022000F01BFA0FA20121032000F04D
:1004800016FADDE700F087F8204610BD01210AA228
:10049000084600F00CFA07A205E0012105A2084673
:1004A00000F005FA04A20121022000F000FA01A2E6
:1004B000E3E70000200000002A00000070B50022E1
:1004C0000321012000F0A6F901220521104600F0C9
:1004D000A1F908220721012000F09CF90922114608
:1004E000012000F097F94FF4FA75641CE4B2FFF7AD
:1004F00021FF022809D02846FFF7A5FE0223224645
:100500000321184600F0B2F9EFE700F044F80020AC
:1005100070BD000010B5012408220521022000F062
:1005200079F909220721022000F074F90A22052135
:10053000032000F06FF90B220721032000F06AF975
:10054000FFF7F8FE012802D0022814D004E0641C52
:10055000E4B2032C00D10124012C10D0022CEFD1E5
:100560000AA20321022000F0A2F909A203210846F1
:1005700000F09DF9E4E700F00EF8002010BD04A2A1
:100580000321022000F093F900A2EFE72000000011
:100590002A000000704770B500250021284600F0B1
:1005A000F4F80024002000F0A6F9641CE4B2802CCA
:1005B000F8D36D1CEDB2082DEFD370BDF8B5012155
:1005C000042000F0ABF914208DF8030003208DF80F
:1005D00002000D4E4FF48064ADF80040694630468D
:1005E000FFF74CFE6500ADF8005069463046FFF756
:1005F00045FE012221463046FFF795FE012229469D
:100600003046FFF790FEF8BD000801402DE9F047A5
:10061000144E002407464FF080084FF4006935154A
:1006200028FA04F23A4049463046FFF77CFE0122A0
:1006300029463046FFF777FE002229463046FFF76D
:1006400072FE641CE4B2082CEAD30122294630462B
:10065000FFF769FE29463046BDE8F0470022FFF764
:1006600062BE00000008014070B501220B4DD402AB
:1006700021462846FFF757FE0122960231462846BA
:10068000FFF751FE002221462846FFF74CFE314677
:100690002846BDE870400022FFF745BE0008014033
:1006A00070B50A4D4FF40064002221462846FFF73A
:1006B0003AFE012291022846FFF735FE21462846E0
:1006C000BDE870400122FFF72EBE00000008014087
:1006D00010B500214FF47A720020401C9042FCD3E8
:1006E000491C9142F8D3FFF769FFAE2000F0F2F801
:1006F000D52000F0EFF8802000F0ECF8A82000F002
:10070000E9F83F2000F0E6F8D32000F0E3F80020FD
:1007100000F0E0F8402000F0DDF8A12000F0DAF869
:10072000C82000F0D7F8DA2000F0D4F8122000F04A
:10073000D1F8812000F0CEF8CF2000F0CBF8D920FE
:1007400000F0C8F8F12000F0C5F8DB2000F0C2F896
:10075000302000F0BFF8A42000F0BCF8A62000F084
:10076000B9F88D2000F0B6F8142000F0B3F8AF20EF
:1007700000F0B0F8BDE81040FFF70DBF03460120C0
:1007800000E05843491EFCD2704710B50C4640F0BB
:10079000B00000F09FF8102040EA141000F09AF822
:1007A00004F00F00BDE8104000F094B82DE9F041CE
:1007B0000746CE004000083E801E15464FF0FF3829
:1007C000F1B2C0B2FFF7E1FF1148002400EB0515BC
:1007D0002819A0F5805090F8000E00F08CF8641CE9
:1007E000E4B2082CF4D308EB4700F1B2C0B2FFF733
:1007F000CCFF00242819A0F5805090F8080E00F0D6
:100800007AF8641CE4B2082CF4D3BDE8F08100004F
:10081000A00C00082DE9F0410746CE004000083E3C
:10082000801E15464FF0FF38F1B2C0B2FFF7ADFFA2
:100830000D48002400EB4515285D00F05CF8641CB1
:10084000E4B2102CF8D308EB4700F1B2C0B2FFF7C6
:100850009CFF00242819007C00F04DF8641CE4B2D1
:10086000102CF7D3BDE8F081600A00082DE9F047AD
:100870001D4616460F46814600244FF00A0812E036
:10088000291B0A20491EFFF779FFB6FBF0F1B1FBE7
:10089000F8F208FB12123819C1B248463032FFF79D
:1008A00085FF641CE4B2AC42EAD3BDE8F0872DE9D1
:1008B000F04115460E460746002406E03019C1B245
:1008C0003846FFF773FF641CE4B22A5D002AF5D1B5
:1008D000BDE8F08110B50446FFF7C6FE7820FFF7AB
:1008E00095FE0020FFF792FE2046FFF78FFEBDE841
:1008F0001040FFF7D5BE10B50446FFF7B5FE7820CF
:10090000FFF784FE4020FFF781FE2046FFF77EFEC2
:10091000BDE81040FFF7C4BE70470000044A00293C
:10092000916901D0014300E081439161704700006B
:1009300000100240704700000CB5002226480092CB
:100940000192016841F4803101604FF4A0630168B5
:1009500001F4003101910099491C0091019911B9EC
:1009600000999942F3D10168890333D5012101919E
:100970001A490A6842F010020A600A6822F003026B
:100980000A600A6842F002020A60416841604168F8
:100990004160416841F480614160416821F47C110B
:1009A0004160416841F4E8114160016841F08071A3
:1009B000016001688901FCD5416821F003014160B3
:1009C000416841F0020141604168C1F3810102299F
:1009D000FAD10CBD01920CBD001002400020024073
:1009E000704700000F4810B5016841F00101016037
:1009F00041680D4A1140416001680C4A1140016094
:100A0000016821F480210160416821F4FE01416008
:100A10004FF41F018160FFF78FFF05494FF0006021
:100A2000086010BD001002400000FFF8FFFFF6FE56
:100A300008ED00E0FEE70000FFF74AFEFFF7AAFC22
:100A4000064CFFF7BFFC2060012801D1FFF736FDFF
:100A500020680228F5D1FFF75DFDF2E700000020D5
:100A60000404E4040FF40404F444CF4444440400B4
:100A700040407D44447D4445447C44457C404000A6
:100A80000000C2B28282828282FE828282828000E2
:100A90000020201008040241807F000000000000B8
:100AA000404042CC000444645C47F44444440400A5
:100AB0000040201F2044444444447F4444444400B4
:100AC000101010FF1050445465C644645444400054
:100AD0000444827F0182824A562322524E820200BF
:100AE00040404444546445464464544444404000B7
:100AF000000000FF49494949494949FF00000000F9
:100B0000202020BEAAAAAAAAAAAAAABE2020200003
:100B1000008080AFAAAAAAFFAAAAAAAF808000007C
:100B200020202020202020FF202020202020200006
:100B300080804020100C0300030C102040808000B7
:100B4000000000E0000000FF0000002040800000E6
:100B5000080403000040807F0000000000010E0038
:100B60002020FF2020F8092A48F8482A09F8000028
:100B700010301F080801FD5555555555FD01000061
:100B8000101010FF1010F00000F8080808F800001E
:100B90008040300F40807F00007F2020207F0000B9
:100BA00000020CC000F80848484808FF08098A00FD
:100BB00002027F80403F001E925E20173846F100FF
:100BC00000008060180000FF0000089020C00000B6
:100BD00000818080404020130804020100000000D2
:100BE000040444C44F4444C424242FB42404040003
:100BF00040442424150C04FE040C15242444400015
:100C00000000F8494A4C48F8484C4A49F8000000AE
:100C100010101312121212FF1212121213101000DF
:100C20004042CC0000E2222A2AF22A2622E00000DA
:100C300080403F4080FF898989BF89A9C9BF800062
:100C4000404042CC0008E9AAB8A8A8AAE9080000D8
:100C50000040201F20405F4A4A4A4A4A5F40400005
:100C6000404042CC00504EC8487FC8484840000031
:100C70000040201F20504C4340404F50505C4000EB
:100C80001010FF100082864A52A2524A86808000CD
:100C900042827F010010121212FF12121210000085
:100CA0000000000000000000000000000000000044
:100CB000000000F8000000000000003330000000D9
:100CC00000100C06100C06000000000000000000E0
:100CD00040C07840C0784000043F04043F04040052
:100CE000007088FC08300000001820FF211E000062
:100CF000F008F000E018000000211C031E211E0077
:100D000000F00888700000001E21232419272110FC
:100D100010160E000000000000000000000000009F
:100D2000000000E018040200000000071820400046
:100D300000020418E0000000004020180700000036
:100D4000404080F0804040000202010F010202009A
:100D5000000000F0000000000101011F010101007E
:100D6000000000000000000080B0700000000000E3
:100D7000000000000000000000010101010101016C
:100D80000000000000000000003030000000000003
:100D900000000000806018040060180601000000D8
:100DA00000E010080810E000000F102020100F00D5
:100DB000001010F8000000000020203F202000005C
:100DC00000700808088870000030282422213000B4
:100DD00000300888884830000018202020110E00BC
:100DE0000000C02010F8000000070424243F240065
:100DF00000F80888880808000019212020110E003A
:100E000000E0108888180000000F112020110E004B
:100E100000380808C83808000000003F0000000043
:100E20000070880808887000001C222121221C0004
:100E300000E010080810E0000000312222110F002D
:100E4000000000C0C00000000000003030000000C2
:100E50000000008000000000000080600000000032
:100E6000000080402010080000010204081020004B
:100E70004040404040404000040404040404040096
:100E8000000810204080000000201008040201002B
:100E9000007048080808F00000000030360100002B
:100EA000C030C828E810E0000718272423140B00DE
:100EB0000000C038E0000000203C23020227382058
:100EC00008F8888888700000203F202020110E003C
:100ED000C030080808083800071820202010080033
:100EE00008F808080810E000203F202020100F001C
:100EF00008F88888E8081000203F202023201800E8
:100F000008F88888E8081000203F2000030000004F
:100F1000C03008080838000007182020221E0200F0
:100F200008F808000008F808203F210101213F20AF
:100F3000000808F8080800000020203F20200000DA
:100F400000000808F8080800C08080807F000000CA
:100F500008F888C028180800203F20012638200003
:100F600008F8080000000000203F2020202030006A
:100F700008F8F800F8F80800203F003F003F200084
:100F800008F830C00008F808203F200007183F008C
:100F9000E01008080810E0000F10202020100F00BB
:100FA00008F808080808F000203F210101010000AE
:100FB000E01008080810E0000F18242438504F00F3
:100FC00008F8888888887000203F2000030C3020B3
:100FD00000708808080838000038202121221C00F1
:100FE000180808F8080818000000203F200000003A
:100FF00008F808000008F808001F202020201F0023
:101000000878880000C83808000007380E01000082
:10101000F80800F80008F800033C0700073C03004C
:10102000081868808068180820302C03032C3020B2
:101030000838C800C83808000000203F2000000021
:1010400010080808C8380800203826212020180079
:10105000000000FE020202000000007F404040004D
:10106000000C30C000000000000000010638C00085
:1010700000020202FE000000004040407F0000002D
:101080000000040202020400000000000000000052
:101090000000000000000000808080808080808050
:1010A0000002020400000000000000000000000038
:1010B00000008080808000000019242222223F202E
:1010C00008F8008080000000003F112020110E0071
:1010D0000000008080800000000E11202020110000
:1010E000000000808088F800000E112020103F20B2
:1010F0000000808080800000001F22222222130036
:10110000008080F0888888180020203F2020000080
:101110000000808080808000006B94949493600035
:1011200008F8008080800000203F210000203F2040
:1011300000809898000000000020203F2020000040
:10114000000000809898000000C08080807F000030
:1011500008F8000080808000203F24022D3020000D
:10116000000808F8000000000020203F20200000B8
:101170008080808080808000203F20003F20003FD2
:101180008080008080800000203F210000203F20E0
:101190000000808080800000001F202020201F0091
:1011A000808000808000000080FFA12020110E00C0
:1011B0000000008080808000000E112020A0FF80B1
:1011C000808080008080800020203F21200001005E
:1011D00000008080808080000033242424241900B3
:1011E000008080E0808000000000001F20200000C0
:1011F0008080000000808000001F202020103F2001
:10120000808080000080808000010E300806010090
:1012100080800080008080800F300C030C300F0035
:1012200000808000808080000020312E0E31200060
:10123000808080000080808080818E701806010090
:1012400000808080808080000021302C22213000AE
:1012500000000000807C020200000000003F4040CF
:1012600000000000FF00000000000000FF00000080
:101270000002027C800000000040403F00000000AF
:10128000000601010202040400000000000000004A
:10129000B01200080000002004000000280100082F
:1012A000B412000804000020640600004401000895
:0412B000000000003A
:04000005080000ED02
:00000001FF
