:020000040800F2
:1000000070060020890100088B040008FD03000829
:100010008904000843020008710B0008000000007A
:10002000000000000000000000000000D1080008EF
:10003000450200080000000095080008BD090008FE
:10004000A3010008A3010008A3010008A301000800
:10005000A3010008A301000881020008DD020008D6
:10006000A3010008A3010008A3010008A3010008E0
:10007000A3010008A3010008A3010008A3010008D0
:10008000A3010008A3010008A3010008A3010008C0
:10009000A3010008A3010008A3010008A3010008B0
:1000A000A3010008A3010008A3010008A3010008A0
:1000B000A3010008A3010008A3010008A301000890
:1000C000A3010008A3010008A3010008A301000880
:1000D000A3010008A3010008A3010008A301000870
:1000E000B5020008A3010008A301000800F002F80F
:1000F00000F03AF80AA090E8000C82448344AAF188
:100100000107DA4501D100F02FF8AFF2090EBAE885
:100110000F0013F0010F18BFFB1A43F0010318473B
:10012000B8150000D8150000103A24BF78C878C16F
:10013000FAD8520724BF30C830C144BF04680C60ED
:10014000704700000023002400250026103A28BF35
:1001500078C1FBD8520728BF30C148BF0B60704739
:100160001FB51FBD10B510BD00F031F81146FFF7E7
:10017000F7FF00F0FFFC00F04FF803B4FFF7F2FFC9
:1001800003BC00F057F800000948804709480047C1
:10019000FEE7FEE7FEE7FEE7FEE7FEE7FEE7FEE737
:1001A000FEE7FEE704480549054A064B7047000094
:1001B000C1090008ED000008700000207006002052
:1001C000700200207002002070477047704775462B
:1001D00000F02CF8AE4605006946534620F00700B3
:1001E000854618B020B5FFF7DDFFBDE820404FF091
:1001F00000064FF000074FF000084FF0000B21F011
:100200000701AC46ACE8C009ACE8C009ACE8C009DD
:10021000ACE8C0098D46704710B50446AFF30080C6
:100220002046BDE81040FFF7A8BF00000048704717
:100230000C00002001491820ABBEFEE7260002009A
:100240007047FEE7704700B502464FF47A7302E04C
:10025000184600F004F8521E501CF9D100BD00EB06
:10026000C000C1004FF0E020416100218161052103
:1002700001610169C903FCD50421016170470000D7
:1002800010B5012000F04AF801280DD101210748DE
:1002900000F0A7F818B906480188491E0180BDE89A
:1002A0001040012000F034B810BD0000000C0140E7
:1002B0000200002010B54FF48044204600F02EF8D4
:1002C000012808D104480188491C01802046BDE866
:1002D000104000F01DB810BD0000002010B5022035
:1002E00000F01CF801280DD10221074800F079F830
:1002F00018B906480188491C0180BDE81040022059
:1003000000F006B810BD0000000C01400200002003
:1003100001490860704700001404014001460020B4
:10032000054A12680A40044B14331B680B4202D082
:10033000002A00D001207047000401402DE9F0415F
:100340000022CC7804F00F03E40601D58C78234317
:100350000C784FF00F0714F0FF0F4FF0010C1CD07A
:1003600005680CFA02F40E882640A64211D19600C8
:1003700007FA06F825EA080503FA06F848EA05052B
:10038000CE78282E02D0482E02D002E0446100E050
:100390000461521C082AE4D305600A88FF2A1ED98A
:1003A0004568002202F108060CFA06F40E88264081
:1003B000A64210D1960007FA06F825EA080503FAC6
:1003C00006F848EA0505CE78282E00D14461CE789B
:1003D000482E00D10461521C082AE3D34560BDE8D1
:1003E000F0810246002092680A4200D00120704746
:1003F000002A01D00161704741617047FEE70000AB
:1004000070B50024144D02212846FFF7EAFF60B9B9
:100410001420FFF718FF02212846FFF7E2FF00280B
:10042000F9D01420FFF70FFF01244FF40066314686
:100430002846FFF7D6FF60B91420FFF704FF3146C6
:100440002846FFF7CEFF0028F9D01420FFF7FBFE67
:100450000224204670BD0000000C014008B50121B7
:10046000082000F027FA48208DF8030040F602002B
:10047000ADF8000003208DF8020069460148FFF73F
:100480005DFF08BD000C0140FEE7704738B5102441
:100490008DF8034003208DF802008020ADF80000A5
:1004A0000C4D69462846FFF749FF4021ADF8001082
:1004B0008DF8034069462846FFF740FF002240219F
:1004C0002846FFF795FF012280212846FFF790FF7D
:1004D00038BD0000000C014070B500250021284601
:1004E00000F0F8F80024002000F076F9641CE4B273
:1004F000802CF8D36D1CEDB2082DEFD370BD000039
:10050000F8B50121082000F0D5F914208DF803007A
:1005100003208DF802004FF48074ADF800400B4EBC
:1005200069463046FFF70AFF6500ADF8005069469E
:100530003046FFF703FF012221463046FFF758FF00
:10054000012229463046FFF753FFF8BD000C014059
:100550002DE9F04707460024134D4FF080094FF472
:100560000078AE1529FA04F23A4041462846FFF7D2
:100570003FFF012231462846FFF73AFF002231466D
:100580002846FFF735FF641CE4B2082CEAD30122A9
:1005900031462846FFF72CFF31462846BDE8F04794
:1005A0000022FFF725BF0000000C014070B50122BA
:1005B0000B4D540221462846FFF71AFF012216026E
:1005C00031462846FFF714FF002221462846FFF750
:1005D0000FFF31462846BDE870400022FFF708BFF4
:1005E000000C014070B50A4D4FF400740022214602
:1005F0002846FFF7FDFE012211022846FFF7F8FE0C
:1006000021462846BDE870400122FFF7F1BE0000F8
:10061000000C014010B500214FF47A720020401CFC
:100620009042FCD3491C9142F8D3FFF769FFFFF7D2
:100630002DFFAE2000F0BFF8D52000F0BCF88020E0
:1006400000F0B9F8A82000F0B6F83F2000F0B3F8A9
:10065000D32000F0B0F8002000F0ADF8402000F00A
:10066000AAF8A12000F0A7F8C82000F0A4F8DA202A
:1006700000F0A1F8122000F09EF8812000F09BF815
:10068000CF2000F098F8D92000F095F8F12000F084
:1006900092F8DB2000F08FF8302000F08CF8A420D6
:1006A00000F089F8A62000F086F88D2000F083F88D
:1006B000142000F080F8AF2000F07DF8BDE8104075
:1006C000FFF70ABF0346012000E05843491E4A1CB9
:1006D000FBD1704710B50C4640F0B00000F06BF84D
:1006E000102040EA141000F066F804F00F00BDE896
:1006F000104000F060B800002DE9F0411546491E99
:10070000461ECF007006F9B2000EFFF7E3FF00248B
:100710000E48203D00EB0515285D00F05DF8641CD7
:10072000E4B2082CF8D3012000EB4600F9B2C0B2C5
:10073000FFF7D0FF00242819007A00F04DF8641C60
:10074000E4B2082CF7D3BDE8F0810000E610000801
:100750002DE9F04781460F4690461E4600240A25A3
:1007600012E0311B491E0A20FFF7ACFFB8FBF0F284
:10077000B2FBF5F005FB10223819C1B23032484601
:10078000FFF7BAFF641CE4B2B442EAD3BDE8F087D5
:100790002DE9F04107460D461646002406E02819CB
:1007A000C1B23846FFF7A8FF641CE4B2325D002AEC
:1007B000F5D1BDE8F08110B50446FFF7F7FE7820CB
:1007C000FFF7C6FE0020FFF7C3FE2046FFF7C0FE7E
:1007D000BDE81040FFF706BF10B50446FFF7E6FE80
:1007E0007820FFF7B5FE4020FFF7B2FE2046FFF766
:1007F000AFFEBDE81040FFF7F5BE01464FF0804068
:1008000000F066B930B589B00121084600F044F81F
:100810000121042000F04EF818208DF8230002205A
:10082000ADF8200003208DF8220008A91848FFF732
:1008300085FD4FF08045284600F0F6F80024ADF81D
:100840001A40ADF8164044F61F61ADF81810472164
:10085000ADF814108DF81C4005A9284600F03AF9AF
:1008600001A800F02BF96020ADF80400ADF80C40B1
:100870000120ADF806005A20ADF80A0001A928466B
:1008800000F0D8F80121284600F0C2F809B030BDC8
:100890000008014070470000054A002903D0D169D3
:1008A0000143D1617047D1698143D1617047000034
:1008B00000100240054A002903D09169014391616B
:1008C00070479169814391617047000000100240B8
:1008D0007047FFF797BF000010B5084900F0E0F936
:1008E000074900F0BFFA074900F078F900F09AFADA
:1008F000BDE8104080B2FFF780BF00000000344325
:100900000000FA440000FA43AFF300800CB5002267
:10091000019200922748016841F4803101604FF450
:10092000A063016801F4003100910199491C019113
:10093000009911B901999942F3D10168890302D54F
:100940000121009100E000920099012930D11A495B
:100950000A6842F010020A600A6822F003020A6084
:100960000A6842F002020A604168416041684160E1
:10097000416841F480614160416821F47C1141602B
:10098000416841F4E8114160016841F08071016003
:1009900001688901FCD5416821F00301416041688B
:1009A00041F0020141604168C1F381010229FAD19D
:1009B0000CBD000000100240002002407047000003
:1009C00010B50F48016841F00101016041680D4A0E
:1009D0001140416001680C4A11400160016821F436
:1009E00080210160416821F4FE0141604FF41F0144
:1009F0008160FFF789FF05494FF00060086010BD76
:100A0000001002400000FFF8FFFFF6FE08ED00E0D6
:100A1000002904D0018841F001010180704701885C
:100A200021F0010101807047018921F00701018156
:100A30007047000070B5028C22F010020284028C14
:100A40008388048B24F4E04424F440760D884FF628
:100A5000FF7404EA0525354322F020020E8904EADA
:100A6000061616434A8804EA02123243114EB04277
:100A700002D0114EB04217D122F080024E8904EA12
:100A80000616164326F040068A8804EA021232430C
:100A900023F4806323F400638E8904EA86061E43F0
:100AA000CB8904EA8303334383800583C9880187A4
:100AB000028470BD002C01400034014000210180FF
:100AC00041808180C180018141818181C1817047E4
:100AD0000187704730B502881B4C1C4DA0420DD0D9
:100AE000A8420BD0B0F1804F08D0194B984205D0E6
:100AF000184B984202D0184B984203D122F0700351
:100B00004A881A43154B984206D0154B984203D099
:100B100022F44073CA881A4302808A8882850A8830
:100B20000285A0420AD0A84208D00E4A904205D0C1
:100B30000D4A904202D00D4A904201D1097A0186B5
:100B40000121818230BD0000002C014000340140B1
:100B50000004004000080040000C0040001000406D
:100B600000140040004001400044014000480140A2
:100B7000FEE70000FFF74EFDFFF7ABFEFFF76EFC50
:100B8000012111A20846FFF703FE114F114D002667
:100B9000114CFFF735FC20700128FAD13946606806
:100BA00000F01CF86060A84200DD66606068FFF736
:100BB00093FE606800F036F9024603230721012006
:100BC000FFF7C6FDE5E70000416E676C653A00007F
:100BD0000000F041000034430400002090EA010FBF
:100BE00048BF81F0004100F11082421A3CBF801AD8
:100BF00089184FEAD0524FF07F4C1CEA410FA2EB0C
:100C0000D15318BF9CEA026F00F03B804FF0004CBC
:100C10004CEA00204CEA012121FA03FC10EB0C0CF9
:100C20001ED202F1FF325FEA1C2040EBC25038BFF7
:100C300070471CF07F0F4FEA400C18BFBCF17F4F8C
:100C400038BF7047C3F12003994008BF20F001006E
:100C5000BCF17F4F38BF7047A0F1C04000F0C9B968
:100C60004FEA3C00000A40EBC25028BF1CF0FF0FC7
:100C70004FEA400CE6D018BFBCF17F4F38BF704739
:100C8000EAE79CEA026F05D010EA5C0F08BF00F0AB
:100C90000040704710B500F066F900BF64FBBE3E2F
:100CA0004FF47F0C1CEAD0121EBF1CEAD11392EA4B
:100CB0000C0F93EA0C0F00F0858090EA010F48BFFB
:100CC00042F4807240F4000C41F400002CF07F41AB
:100CD00020F07F4000B58142A2EB03020FF2081C16
:100CE000ACEB504EC0F100009EF800E04FEA4E0E13
:100CF00000FB0EFC38BF49004FEA2C1C02F5FA023B
:100D00000CFB0EF34FEACE1E4FEA112C4FEAC12125
:100D10000EEB635E42EB22420EFB0CFC4FEA1C53CF
:100D200000FB03114FEA112C4FEA01310EFB0CFCC2
:100D30004FEADC4C00FB0C11C14228BF09184CEBF8
:100D400003335DF804EB10EB410143EBC250B2F505
:100D50007C0F38BF704729D512F0F00F1CBF00F18F
:100D6000C04000F000407047008182838485868700
:100D700088898B8C8D8E8F919293959697999A9C5A
:100D80009D9FA0A2A3A5A7A8AAACAEB0B2B3B5B7C9
:100D9000B9BCBEC0C2C5C7C9CCCED1D4D7D9DCDF9F
:100DA000E2E6E9ECF0F3F7FAFE0000004FEA400C4F
:100DB0000CF1807CBCF17E4F28BF7047B0F1C04081
:100DC00000F017B990EA010F0CEAD11348BF42F4C2
:100DD0008072624538BF634507D213F47F0F16D087
:100DE00080EA010000F00040704710B500F0BBF849
:100DF000097EFC3E00F005B880EA010000F00040EA
:100E0000704780EA010000F0004000F0F2B812F4F0
:100E10007F0F04BF0248704780EA010000F0E9B884
:100E20000000C07FC10DD1F19E0206DB4FEA002316
:100E300043F0004323FA02F07047004207D54FEA1F
:100E40004001B1F1FE4F02D24FF00000704710B5E3
:100E500000F089F849922480002070476FEA200052
:100E6000704700004FF47F0C1CEAD0121EBF1CEA32
:100E7000D11392EA0C0F93EA0C0F00F0478090EA2E
:100E8000010F48BF42F480724FF0004C4CEA002042
:100E90004CEA012102EB0302A0FB0113A2F50002C0
:100EA000002918BF43F001035B0028BF4FEA33035A
:100EB00042EB22425FEA132C4CEBC2502EBFBCEB3C
:100EC000436FB2F57C0F70474FEA036CBCF1004FE3
:100ED00008BF20F00100B2F57C0F38BF70470BD57A
:100EE00082F0FF0212F5803FC8BF704700F1C0409A
:100EF000D8BF00F00040704700F5000C5FEA4C0CD2
:100F000048BF7047B0F1C04000F073B890EA010FDD
:100F10000CEAD11348BF42F48072624538BF634582
:100F200004D280EA010000F00040704710B500F0E4
:100F30001AF800BF8900013E00F007B800F009B8B8
:100F40005FEA410C5FEA1C6C08D080EA010000F007
:100F500050B85FEA400C5FEA1C6CF6D14FF00040DD
:100F6000A0F5800070470EF1020E2EF0030E5EF821
:100F7000044B244204D44FEA4102B2F17F4F11D80E
:100F80004FEA4003B3F17F4F0CD80ED14FEAD07C2B
:100F9000B2F17F4F0CEB4C0C0CF1020C08BF4CEB88
:100FA000D17C04E04FF0080C01E04FEAD17C0CEB5F
:100FB0004C0324FA03F404F00704B4F1040C06D241
:100FC0000EEB840CBDE810404CF0010C6047DFE8EC
:100FD0000CF0070802024FF00040A0F5800010BDA1
:100FE0000846420018BFD2F1807288BF00F000406E
:100FF00010BDFF2141EAD050C005704790EA010FB3
:1010000048BF81F000413FF5F0AD421A04D882F0AC
:101010000042A0EB020011444FEAD0524FF07F4C47
:101020001CEA410FA2EBD15318BF9CEA026F4AD0D1
:101030004FF0004C4CEA00204CEA012121FA03FC5D
:10104000B0EB0C0C0FD412F0FE0F36D05FEA4C0060
:101050001DD5001240EBC25038BF70471CF03F0F47
:1010600018BF70470BE0A2F101025FEA1C2040EBC1
:10107000C25038BF70471CF07F0F18BF7047C3F1D4
:101080002003994014BF401E20F0010070478008E3
:101090004FEA122308BF7047B0FA80FCA2EB0C02A3
:1010A000CCF1280C60FA0CF093EA122F04BF00EB8D
:1010B000C25070474FEAC3707047130A5FEADC10F2
:1010C00008BF7047F6E79CEA026F04D010EA5C0F95
:1010D00008BF0020704710B5FFF745FF40DFF63E20
:1010E00081F0004070470000000000000000000098
:1010F000000000000000000000F8000000000000F8
:1011000000333000000000100C06100C0600000038
:1011100000000000000040C07840C0784000043F5C
:1011200004043F040400007088FC0830000000182C
:1011300020FF211E0000F008F000E0180000002150
:101140001C031E211E0000F00888700000001E21F4
:1011500023241927211010160E00000000000000A3
:10116000000000000000000000E018040200000081
:1011700000071820400000020418E00000000040B2
:10118000201807000000404080F08040400002022C
:10119000010F01020200000000F000000000010148
:1011A000011F01010100000000000000000080B0EC
:1011B00070000000000000000000000000000001BE
:1011C00001010101010100000000000000000030E9
:1011D0003000000000000000000080601804006083
:1011E00018060100000000E010080810E000000FE1
:1011F000102020100F00001010F800000000002048
:10120000203F20200000007008080888700000308F
:101210002824222130000030088888483000001837
:10122000202020110E000000C02010F80000000750
:101230000424243F240000F80888880808000019C6
:10124000212020110E0000E0108888180000000FF7
:10125000112020110E0000380808C83808000000CE
:10126000003F000000000070880808887000001C23
:10127000222121221C0000E010080810E0000000DC
:10128000312222110F00000000C0C0000000000049
:10129000003030000000000000800000000000006E
:1012A0008060000000000000804020100800000165
:1012B0000204081020004040404040404000040428
:1012C00004040404040000081020408000000020F2
:1012D000100804020100007048080808F00000002F
:1012E000003036010000C030C828E810E0000718C0
:1012F000272423140B000000C038E0000000203C2D
:1013000023020227382008F8888888700000203FD0
:10131000202020110E00C0300808080838000718E7
:1013200020202010080008F808080810E000203FDE
:10133000202020100F0008F88888E8081000203FBF
:1013400020202320180008F88888E8081000203F93
:10135000200003000000C03008080838000007180B
:101360002020221E020008F808000008F808203F8C
:10137000210101213F20000808F808080000002092
:10138000203F2020000000000808F8080800C08066
:1013900080807F00000008F888C028180800203FDF
:1013A00020012638200008F8080000000000203F37
:1013B00020202020300008F8F800F8F80800203F2E
:1013C000003F003F200008F830C00008F808203F28
:1013D000200007183F00E01008080810E0000F1078
:1013E000202020100F0008F808080808F000203F0F
:1013F000210101010000E01008080810E0000F18AA
:10140000242438504F0008F8888888887000203FCE
:101410002000030C302000708808080838000038CD
:10142000202121221C00180808F8080818000000D4
:10143000203F2000000008F808000008F808001FFE
:10144000202020201F000878880000C838080000ED
:1014500007380E010000F80800F80008F800033C07
:101460000700073C030008186880806818082030CF
:101470002C03032C30200838C800C83808000000AE
:10148000203F2000000010080808C8380800203855
:10149000262120201800000000FE020202000000A9
:1014A000007F40404000000C30C000000000000001
:1014B00000010638C00000020202FE0000000040E9
:1014C00040407F000000000004020202040000000F
:1014D000000000000000000000000000000080800C
:1014E00080808080808000020204000000000000F4
:1014F00000000000000000008080808000000019D3
:10150000242222223F2008F8008080000000003FB3
:10151000112020110E000000008080800000000ECD
:10152000112020201100000000808088F800000EAB
:10153000112020103F200000808080800000001FCC
:10154000222222221300008080F088888818002040
:10155000203F202000000000808080808000006B01
:1015600094949493600008F8008080800000203FED
:10157000210000203F2000809898000000000020FB
:10158000203F20200000000000809898000000C04C
:101590008080807F000008F8000080808000203F6D
:1015A00024022D302000000808F800000000002070
:1015B000203F202000008080808080808000203FAD
:1015C00020003F20003F8080008080800000203F7E
:1015D000210000203F200000808080800000001F4C
:1015E000202020201F00808000808000000080FFDD
:1015F000A12020110E000000008080808000000EDD
:10160000112020A0FF80808080008080800020202A
:101610003F21200001000000808080808000003396
:10162000242424241900008080E080800000000031
:10163000001F202000008080000000808000001F2C
:10164000202020103F2080808000008080800001CA
:101650000E300806010080800080008080800F30FE
:101660000C030C300F000080800080808000002080
:10167000312E0E31200080808000008080808081AB
:101680008E7018060100008080808080800000211C
:10169000302C2221300000000000807C020200007B
:1016A0000000003F404000000000FF00000000007C
:1016B0000000FF0000000002027C800000000040EB
:1016C000403F000000000006010102020404000087
:1016D0000000000000000000F816000800000020D4
:1016E0000C00000028010008041700080C0000206E
:1016F0006406000044010008000000000000000033
:0417000000000000E5
:04000005080000ED02
:00000001FF
