:020000040800F2
:10000000680A002089010008E304000821040008B0
:10001000AD04000843020008ED09000800000000DC
:10002000000000000000000000000000310800088F
:1000300045020008000000001308000899090008A4
:10004000A3010008A3010008A3010008A301000800
:10005000A3010008A3010008A3010008A3010008F0
:10006000A3010008A3010008A3010008A3010008E0
:10007000A3010008A3010008A3010008A3010008D0
:10008000A3010008A3010008A3010008A3010008C0
:10009000A3010008A3010008A3010008A3010008B0
:1000A000A3010008A3010008A3010008A3010008A0
:1000B000A3010008A3010008A3010008A301000890
:1000C000A3010008A3010008A3010008A301000880
:1000D000A3010008A3010008A3010008A301000870
:1000E000A3010008A3010008A301000800F002F822
:1000F00000F03AF80AA090E8000C82448344AAF188
:100100000107DA4501D100F02FF8AFF2090EBAE885
:100110000F0013F0010F18BFFB1A43F0010318473B
:100120006C0F00008C0F0000103A24BF78C878C113
:10013000FAD8520724BF30C830C144BF04680C60ED
:10014000704700000023002400250026103A28BF35
:1001500078C1FBD8520728BF30C148BF0B60704739
:100160001FB51FBD10B510BD00F031F81146FFF7E7
:10017000F7FF00F03DFC00F04FF803B4FFF7F2FF8B
:1001800003BC00F057F800000948804709480047C1
:10019000FEE7FEE7FEE7FEE7FEE7FEE7FEE7FEE737
:1001A000FEE7FEE704480549054A064B7047000094
:1001B0009D090008ED00000868040020680A00207E
:1001C0006806002068060020704770477047754633
:1001D00000F02CF8AE4605006946534620F00700B3
:1001E000854618B020B5FFF7DDFFBDE820404FF091
:1001F00000064FF000074FF000084FF0000B21F011
:100200000701AC46ACE8C009ACE8C009ACE8C009DD
:10021000ACE8C0098D46704710B50446AFF30080C6
:100220002046BDE81040FFF7A8BF00000048704717
:100230000404002001491820ABBEFEE7260002009E
:100240007047FEE7704700B502464FF47A7302E04C
:10025000184600F004F8521E501CF9D100BD00EB06
:10026000C000C1004FF0E020416100218161052103
:1002700001610169C903FCD50421016170470000D7
:1002800070B505464FF43026304600F059F8042882
:1002900011D1094C206940F002002061656120699C
:1002A00040F040002061304600F04AF8216941F6F4
:1002B000FD721140216170BD0020024004200849F8
:1002C000CA68D20701D001207047CA68520701D519
:1002D00002207047C968C906FBD50320704700009B
:1002E000002002400248016941F08001016170472D
:1002F00000200240F0B506460D464FF40057384640
:1003000000F01EF804280CD1064C206940F00100D2
:1003100020613580384600F013F82169BA1E11407B
:100320002161F0BD002002400348024941600349B9
:10033000416070472301674500200240AB89EFCD43
:1003400000B50346FFF7BAFF02E0FFF7B7FF5B1EF9
:10035000012801D1002BF8D1002B00D1052000BDD0
:100360002DE9F0410022CC7804F00F03E40601D51A
:100370008C7823430C784FF00F0714F0FF0F4FF0E9
:10038000010C1CD005680CFA02F40E882640A64227
:1003900011D1960007FA06F825EA080503FA06F8CF
:1003A00048EA0505CE78282E02D0482E02D002E079
:1003B000446100E00461521C082AE4D305600A8805
:1003C000FF2A1ED94568002202F108060CFA06F43D
:1003D0000E882640A64210D1960007FA06F825EAB4
:1003E000080503FA06F848EA0505CE78282E00D15C
:1003F0004461CE78482E00D10461521C082AE3D310
:100400004560BDE8F0810246002092680A4200D0B3
:1004100001207047002A01D0016170474161704797
:10042000FEE7000070B50024144D02212846FFF7B6
:10043000EAFF60B91420FFF706FF02212846FFF704
:10044000E2FF0028F9D01420FFF7FDFE01244FF44D
:10045000006631462846FFF7D6FF60B91420FFF743
:10046000F2FE31462846FFF7CEFF0028F9D01420CF
:10047000FFF7E9FE0224204670BD0000000C014099
:1004800008B50121082000F0C5F948208DF80300C7
:1004900040F60200ADF8000003208DF80200694626
:1004A0000148FFF75DFF08BD000C0140FEE710B5F5
:1004B0000446FFF739FF2046FFF7E2FEBDE8104093
:1004C000FFF710BF0088704770B504460D46FFF770
:1004D0002BFF29462046FFF70DFFBDE87040FFF7D0
:1004E00001BF704770B500250021284600F0F6F8DE
:1004F0000024002000F07CF9641CE4B2802CF8D3C6
:100500006D1CEDB2082DEFD370BD0000F8B50121D0
:10051000082000F07FF914208DF8030003208DF8E7
:1005200002004FF48074ADF800400B4E694630462F
:10053000FFF716FF6500ADF8005069463046FFF73B
:100540000FFF012221463046FFF764FF01222946B2
:100550003046FFF75FFFF8BD000C01402DE9F04782
:1005600007460024134D4FF080094FF40078AE1574
:1005700029FA04F23A4041462846FFF74BFF012290
:1005800031462846FFF746FF002231462846FFF74E
:1005900041FF641CE4B2082CEAD30122314628460C
:1005A000FFF738FF31462846BDE8F0470022FFF745
:1005B00031BF0000000C014070B501220B4D540208
:1005C00021462846FFF726FF01221602314628461B
:1005D000FFF720FF002221462846FFF71BFF314688
:1005E0002846BDE870400022FFF714BF000C014010
:1005F00070B50A4D4FF40074002221462846FFF7DB
:1006000009FF012211022846FFF704FF2146284670
:10061000BDE870400122FFF7FDBE0000000C014064
:1006200010B500214FF47A720020401C9042FCD398
:10063000491C9142F8D3FFF769FFAE2000F0C7F8DC
:10064000D52000F0C4F8802000F0C1F8A82000F008
:10065000BEF83F2000F0BBF8D32000F0B8F800202F
:1006600000F0B5F8402000F0B2F8A12000F0AFF89B
:10067000C82000F0ACF8DA2000F0A9F8122000F051
:10068000A6F8812000F0A3F8CF2000F0A0F8D92030
:1006900000F09DF8F12000F09AF8DB2000F097F8C8
:1006A000302000F094F8A42000F091F8A62000F08B
:1006B0008EF88D2000F08BF8142000F088F8AF2021
:1006C00000F085F8BDE81040FFF70CBF034601209D
:1006D00000E05843491E4A1CFBD1704710B50C4638
:1006E00040F0B00000F073F8102040EA141000F061
:1006F0006EF804F00F00BDE8104000F068B800008C
:100700002DE9F0411546491E461ECF007006F9B28C
:10071000000EFFF7E3FF00240E48203D00EB051517
:10072000285D00F065F8641CE4B2082CF8D30120C1
:1007300000EB4600F9B2C0B2FFF7D0FF0024281941
:10074000007A00F055F8641CE4B2082CF7D3BDE839
:10075000F08100009C0A00082DE9F04781460E4612
:1007600090461F4600241BE0391B491E1020FFF74E
:10077000ADFFB8FBF0F000F00F050A2D07D23019DD
:100780003035C1B2EAB24846FFF7BAFF06E0301989
:100790003735C1B2EAB24846FFF7B2FF641CE4B293
:1007A000BC42E1D3BDE8F0872DE9F04107460D4694
:1007B0001646002406E02819C1B23846FFF7A0FF0C
:1007C000641CE4B2325D002AF5D1BDE8F08110B5B9
:1007D0000446FFF7F1FE7820FFF7C0FE0020FFF788
:1007E000BDFE2046FFF7BAFEBDE81040FFF700BF90
:1007F00010B50446FFF7E0FE7820FFF7AFFE40207B
:10080000FFF7ACFE2046FFF7A9FEBDE81040FFF75A
:10081000EFBE7047054A002903D0916901439161F9
:100820007047916981439161704700000010024058
:10083000704700F001B800000CB500220192009250
:100840002748016841F4803101604FF4A0630168DA
:1008500001F4003100910199491C0191009911B9ED
:1008600001999942F3D10168890302D501210091D0
:1008700000E000920099012930D11A490A6842F03B
:1008800010020A600A6822F003020A600A6842F055
:1008900002020A604168416041684160416841F478
:1008A00080614160416821F47C114160416841F4FC
:1008B000E8114160016841F08071016001688901BF
:1008C000FCD5416821F003014160416841F002011B
:1008D00041604168C1F381010229FAD10CBD0000D9
:1008E000001002400020024001200021044A43027F
:1008F00022F81010401C80B29842F9D300F032B8B0
:10090000040000202DE9F041144D2846FFF7DAFDE0
:100910004AF2A554AE14A04210D02846FFF7C7FDF6
:1009200021462846FFF7D0FD012405EB44000021B5
:10093000FFF7CAFD641CA4B2B442F6D300242F46CC
:10094000074D07EB4400FFF7BDFD25F81400641CBC
:10095000A4B2B442F5D3BDE8F081000000FC000869
:10096000040000202DE9F041094D2846FFF79FFDC6
:100970000024084EAF1405EB440036F81410FFF7BE
:10098000A3FD641CA4B2BC42F5D3BDE8F081000015
:1009900000FC0008040000207047000010B50F485C
:1009A000016841F00101016041680D4A1140416058
:1009B00001680C4A11400160016821F48021016046
:1009C000416821F4FE0141604FF41F018160FFF78F
:1009D00030FF05494FF00060086010BD0010024074
:1009E0000000FFF8FFFFF6FE08ED00E0FEE7000064
:1009F000FFF716FEFFF744FDFFF784FF012121A258
:100A00000846FFF7D1FE21A201210220FFF7CCFE0C
:100A1000204D214CFFF706FD287001280DD160887C
:100A2000401C6080A088801CA080E088C01CE08002
:100A30002089001D2081FFF795FF2878022801D129
:100A4000FFF752FF2288042306210120FFF784FECE
:100A50006288042301210320FFF77EFEA28804237D
:100A600006210320FFF778FE0423E28801211846BF
:100A7000FFF772FE0423228906211846FFF76CFE59
:100A8000C8E70000466C61673A0000004461746189
:100A90003A000000000000200400002000000000D8
:100AA000000000000000000000000000000000F84E
:100AB00000000000000000333000000000100C06B1
:100AC000100C0600000000000000000040C078404C
:100AD000C0784000043F04043F040400007088FC18
:100AE00008300000001820FF211E0000F008F00070
:100AF000E018000000211C031E211E0000F00888E1
:100B0000700000001E2123241927211010160E004A
:100B1000000000000000000000000000000000E0F5
:100B2000180402000000000718204000000204180A
:100B3000E00000000040201807000000404080F066
:100B4000804040000202010F01020200000000F09C
:100B5000000000000101011F010101000000000070
:100B60000000000080B070000000000000000000E5
:100B7000000000000001010101010101000000006E
:100B80000000000000303000000000000000000005
:100B900080601804006018060100000000E01008E2
:100BA0000810E000000F102020100F00001010F8B7
:100BB000000000000020203F2020000000700808F6
:100BC0000888700000302824222130000030088876
:100BD000884830000018202020110E000000C0209E
:100BE00010F8000000070424243F240000F80888BF
:100BF000880808000019212020110E0000E010884C
:100C000088180000000F112020110E00003808087D
:100C1000C83808000000003F00000000007088088D
:100C200008887000001C222121221C0000E010080E
:100C30000810E0000000312222110F00000000C067
:100C4000C000000000000030300000000000008004
:100C500000000000000080600000000000008040F4
:100C6000201008000001020408102000404040400D
:100C70004040400004040404040404000008102060
:100C800040800000002010080402010000704808A5
:100C90000808F0000000003036010000C030C8280D
:100CA000E810E0000718272423140B000000C038C8
:100CB000E0000000203C23020227382008F8888842
:100CC00088700000203F202020110E00C03008084E
:100CD00008083800071820202010080008F8080825
:100CE0000810E000203F202020100F0008F888881E
:100CF000E8081000203F20202320180008F88888EA
:100D0000E8081000203F200003000000C030080861
:100D10000838000007182020221E020008F80800EA
:100D20000008F808203F210101213F20000808F8B1
:100D3000080800000020203F2020000000000808D4
:100D4000F8080800C08080807F00000008F888C094
:100D500028180800203F20012638200008F8080045
:100D600000000000203F20202020300008F8F8007C
:100D7000F8F80800203F003F003F200008F830C08E
:100D80000008F808203F200007183F00E01008087E
:100D90000810E0000F10202020100F0008F80808AD
:100DA0000808F000203F210101010000E0100808C0
:100DB0000810E0000F18242438504F0008F88888E5
:100DC00088887000203F2000030C302000708808C5
:100DD000080838000038202121221C00180808F8D3
:100DE000080818000000203F2000000008F8080054
:100DF0000008F808001F202020201F000878880025
:100E000000C83808000007380E010000F80800F894
:100E10000008F800033C0700073C0300081868803E
:100E20008068180820302C03032C30200838C800B4
:100E3000C83808000000203F200000001008080803
:100E4000C83808002038262120201800000000FEA5
:100E5000020202000000007F40404000000C30C051
:100E600000000000000000010638C000000202027D
:100E7000FE000000004040407F000000000004022F
:100E8000020204000000000000000000000000005A
:100E9000000000008080808080808080000202044A
:100EA0000000000000000000000000000000808042
:100EB000808000000019242222223F2008F80080B0
:100EC00080000000003F112020110E000000008073
:100ED00080800000000E1120202011000000008002
:100EE0008088F800000E112020103F200000808034
:100EF00080800000001F222222221300008080F048
:100F0000888888180020203F202000000000808072
:100F100080808000006B94949493600008F80080B7
:100F200080800000203F210000203F200080989812
:100F3000000000000020203F202000000000008072
:100F40009898000000C08080807F000008F80000B2
:100F500080808000203F24022D302000000808F807
:100F6000000000000020203F2020000080808080C2
:100F700080808000203F20003F20003F8080008054
:100F800080800000203F210000203F200000808062
:100F900080800000001F202020201F008080008013
:100FA0008000000080FFA12020110E0000000080C2
:100FB00080808000000E112020A0FF8080808000B3
:100FC0008080800020203F212000010000008080E0
:100FD000808080000033242424241900008080E0D5
:100FE000808000000000001F2020000080800000A2
:100FF00000808000001F202020103F208080800083
:101000000080808000010E30080601008080008092
:10101000008080800F300C030C300F0000808000B7
:10102000808080000020312E0E31200080808000E2
:101030000080808080818E70180601000080808092
:10104000808080000021302C222130000000000030
:10105000807C020200000000003F404000000000D1
:10106000FF00000000000000FF0000000002027C02
:10107000800000000040403F000000000006010129
:10108000020204040000000000000000AC10000890
:10109000000000200400000028010008B010000833
:1010A00004000020640A0000440100080000000061
:04000005080000ED02
:00000001FF
