:020000040800F2
:10000000080B0020C9010008BD040008B504000861
:10001000B904000883020008ED0600080000000093
:10002000000000000000000000000000E1040008E3
:100030008702000800000000BF040008BF05000898
:10004000E3010008E3010008E3010008E301000800
:10005000E3010008E3010008E3010008E3010008F0
:10006000E3010008E3010008E3010008E3010008E0
:10007000E3010008E3010008E3010008E3010008D0
:10008000E3010008E3010008E3010008E3010008C0
:10009000E3010008E3010008E3010008E3010008B0
:1000A000E3010008E3010008E3010008E3010008A0
:1000B000E3010008E3010008E3010008E301000890
:1000C000E3010008E3010008E3010008E301000880
:1000D000E3010008E3010008E3010008E301000870
:1000E000E3010008E3010008E301000800F002F862
:1000F00000F05AF80AA090E8000C82448344AAF168
:100100000107DA4501D100F04FF8AFF2090EBAE865
:100110000F0013F0010F18BFFB1A43F0010318473B
:1001200094080000B40800000A444FF0000C10F8D6
:10013000013B13F0070408BF10F8014B1D1108BF65
:1001400010F8015B641E05D010F8016B641E01F805
:10015000016BF9D113F0080F1EBF10F8014BAD1C55
:100160000C1B09D16D1E58BF01F801CBFAD505E073
:1001700014F8016B01F8016B6D1EF9D59142D6D3CD
:10018000704700000023002400250026103A28BFF5
:1001900078C1FBD8520728BF30C148BF0B607047F9
:1001A0001FB51FBD10B510BD00F031F81146FFF7A7
:1001B000F7FF00F035FB00F04FF803B4FFF7F2FF54
:1001C00003BC00F057F80000094880470948004781
:1001D000FEE7FEE7FEE7FEE7FEE7FEE7FEE7FEE7F7
:1001E000FEE7FEE704480549054A064B7047000054
:1001F000C1050008ED00000808050020080B0020DC
:1002000008070020080700207047704770477546B0
:1002100000F02CF8AE4605006946534620F0070072
:10022000854618B020B5FFF7DDFFBDE820404FF050
:1002300000064FF000074FF000084FF0000B21F0D0
:100240000701AC46ACE8C009ACE8C009ACE8C0099D
:10025000ACE8C0098D46704710B50446AFF3008086
:100260002046BDE81040FFF7A8BF000000487047D7
:10027000A404002001491820ABBEFEE726000200BE
:10028000704700BFFEE7704700B5034603E04FF438
:100290007A7000F005F8181EA3F10103F7D100BD34
:1002A00000EBC001C9004FF0E022516100219161D3
:1002B0000521116100BF4FF0E021096901F480318F
:1002C0000029F8D004214FF0E022116170472DE998
:1002D000F0410246002500260020002300240027CC
:1002E00091F803C00CF00F0591F803C00CF0100C4E
:1002F000BCF1000F03D091F802C04CEA050591F85B
:1003000000C0BCF1000F31D0146800202BE04FF08A
:10031000010C0CFA00F3B1F800C00CEA03069E428F
:1003200020D183004FF00F0C0CFA03F7BC4305FA01
:1003300003FC4CEA040491F803C0BCF1280F06D179
:100340004FF0010C0CFA00FCC2F814C00AE091F85E
:1003500003C0BCF1480F05D14FF0010C0CFA00FCB2
:10036000C2F810C0401C0828D1D31460B1F800C0F6
:10037000BCF1FF0F34DD546800202EE000F1080CC2
:100380004FF0010808FA0CF3B1F800C00CEA0306BC
:100390009E4221D183004FF00F0C0CFA03F7BC43AF
:1003A00005FA03FC4CEA040491F803C0BCF1280FE1
:1003B00005D100F1080C08FA0CF8C2F8148091F885
:1003C00003C0BCF1480F07D100F1080C4FF0010841
:1003D00008FA0CF8C2F81080401C0828CED35460EC
:1003E000BDE8F08108B50121042000F069F8102073
:1003F0008DF803004FF41E40ADF8000003208DF887
:10040000020069460448FFF762FF4FF41E410248AC
:1004100000F04EF808BD000000080140F0B50A46A3
:10042000002300240021002500F00046B6F1004F13
:1004300002D11D4EF16901E01B4E7168C0F3034506
:1004400083B200F44016B6F5401F08D121F0706168
:10045000154E766826F07066134F7E6012E000F449
:100460008016B6F5801F06D1032606FA05F4A143CF
:1004700041F0706106E0460D360103FA06F6B1431D
:1004800041F0706122B1460D360103FA06F63143A0
:1004900000F00046B6F1004F02D1034EF16101E0D9
:1004A000014E7160F0BD00000000014041617047E5
:1004B0000161704700BFFEE700BFFEE7704770476D
:1004C00029B1064A92690243044B9A6104E0034A47
:1004D00092698243014B9A6170470000001002400C
:1004E0007047000070B5044600254FF400711748AE
:1004F000FFF7DCFF4FF480611448FFF7D7FF00BF20
:100500001BE04FF480511148FFF7D0FF04F080004A
:1005100028B14FF400410D48FFF7CAFF04E04FF443
:1005200000410A48FFF7C2FF4FF480510748FFF728
:10053000BFFF6006040E681CC5B2082DE1DB4FF456
:1005400000710248FFF7B4FF70BD000000080140D1
:1005500070B5044600254FF400711748FFF7A6FF59
:100560004FF480611448FFF7A3FF00BF1BE04FF476
:1005700080511148FFF79AFF04F0800028B14FF432
:1005800000410D48FFF794FF04E04FF400410A4892
:10059000FFF78CFF4FF480510748FFF789FF600693
:1005A000040E681CC5B2082DE1DB4FF4007102484F
:1005B000FFF77EFF70BD00000008014070477047E4
:1005C00010B51348006840F0010011490860084662
:1005D0004068104908400E494860084600680E49C6
:1005E00008400B4908600846006820F48020086035
:1005F0000846406820F4FE0048604FF41F00886001
:10060000FFF7DCFF4FF000600449086010BD0000F8
:10061000001002400000FFF8FFFFF6FE08ED00E0CA
:1006200010B54FF400613048FFF740FFC820FFF7D6
:100630002BFE4FF400612C48FFF73AFFC820FFF76C
:1006400023FEE220FFF74EFF1420FFF71DFEEB20F4
:10065000FFF748FF2B20FFF745FF2520FFF742FF5C
:100660008120FFF73FFF4720FFF73CFFA420FFF763
:1006700039FFA620FFF736FFC420FFF733FFA12084
:10068000FFF730FFD120FFF72DFFD520FFF72AFF1E
:100690008420FFF727FFC820FFF724FF1020FFF773
:1006A00021FFF420FFF71EFF4320FFF71BFFF6207A
:1006B000FFF718FF8C20FFF715FFF520FFF712FF5B
:1006C0000020FFF70FFFF720FFF70CFFA020FFF738
:1006D00009FFF820FFF706FF8920FFF703FFAD2091
:1006E000FFF700FF10BD00000008014000BFFEE75B
:1006F00070B50021084600F05BF8002410E004EB20
:10070000C400294901EBC00504EBC4004430C6B263
:100710002B4602222821304600F098F8601CC4B213
:10072000042CECDB00240FE004EBC4001F4901EBB8
:100730008005A0004430C6B22B4601224621304637
:1007400000F084F8601CC4B20B2CEDDB0B2411E02C
:1007500004EBC400154901EB8005A4F10B008000F7
:100760004430C6B22B4601226421304600F06EF8B8
:10077000601CC4B2122CEBDB122411E004EBC400A9
:100780000A4901EB8005A4F1120080004430C6B292
:100790002B4601228221304600F058F8601CC4B27A
:1007A000192CEBDB70BD00000000002020010020B0
:1007B0002DE9F04107460D466020FFF793FE7020BB
:1007C000FFF790FE0020FFF78DFE1020FFF78AFE56
:1007D000002421E000261BE0204604EBD0714910E4
:1007E000A4EB410149B93846FFF7B2FE3846FFF79E
:1007F000AFFE3846FFF7ACFE08E02846FFF7A8FE3C
:100800002846FFF7A5FE2846FFF7A2FE701CC6B2D9
:100810003C2EE1DB601CC4B2A02CDBDBBDE8F08128
:1008200001210846FFF74CFE01210748FFF7F6FDBE
:10083000FFF7D8FDFFF7F4FE6420FFF725FDFFF773
:1008400057FF00BFFEE70000000230002DE9FF4F18
:1008500089B080461D4608F0FF0808F00F00079099
:10086000102040EA18184FF0000998E009EB490001
:1008700080000B994843C0B20890002488E004EB44
:10088000C90000F0FF0B8920FFF72CFE0798FFF747
:1008900029FE4046FFF726FE0A99594401F00F0150
:1008A00041F06000FFF71EFE0A995944C1F303119D
:1008B00041F07000FFF716FE4FF0000A5FE00AEB10
:1008C0004A01089800EB4100C6B20120A040C7B21F
:1008D000A85D384006900698204106900698C0070B
:1008E000000E0690A81940783840059005982041E0
:1008F00005900598C006000E0590A81C805D384044
:1009000004900498204104900498C007000E0490BD
:10091000E81C805D384003900398204103900398C1
:10092000C006000E0390281D805D3840029002989A
:10093000204102900298C007000E0290681D805D61
:10094000384001900198204101900198C006000EA6
:100950000190DDE9052141EA0200FFF7F9FDDDE93B
:10096000032141EA0200FFF7F3FDDDE9012141EA3D
:100970000200FFF7EDFD0AF1010000F0FF0A0B98FD
:10098000400050459BDC8820FFF7ACFD601CC4B2E2
:10099000082CFFF674AF09F1010000F0FF09B9F16E
:1009A000030FFFF663AF8920FFF79CFD0DB0BDE894
:1009B000F08F0000D409000800000020A40400000B
:1009C00028010008D80B0008A404002064060000D9
:1009D00084010008114A10012F90F0781F161209A7
:1009E0002690181C1810580A40402010180CFFFFC1
:1009F0001101B4FFFF011CFF7F010187212161E18B
:100A00007F3F380CFEFC0404E43E0E04FEFC44016F
:100A10004CFEFE042C1FFF808384F8F008480B086E
:100A200008788808885F6F30204421130301380E4E
:100A300040FF7F30100801070C1830702019111E7C
:100A400080E0781E0C3D76071A60C0802620100CCE
:100A500006031CC0F03E1A19154701070E1C0C08AE
:100A60004F103038361311C76611161C78304A40C3
:100A70008649016D6464440490213CFCF808012B14
:100A8000FCFC4183FFFF3C0F0702018F0F07202072
:100A900060E0DA814009E0F8180404043C382C03D3
:100AA0000F0C71EB080624780AF0180C04040C18DB
:100AB000F0E0241B0C0FB9C11A04792E080404FCC1
:100AC000F8BE6C1F1F1006416AC0241D0404FFFFFE
:100AD00005699B2A1F49D94719431BFC1049130C70
:100AE0000C191E19435A1045092290A6202020E017
:100AF000F073FFFFA94A092224B96D3009F8484470
:100B000044444C7870196D1A18236A08C20929B434
:100B100041940E0E0E04111C1C1C7C04FCFE0611DC
:100B20001B0F1F6BED081F0F088F1A1870433C38FE
:100B300059FC4308060E1D808080C0E0D830098033
:100B4000C040202020E0C0180AFCFF21100808083F
:100B500018F0344B0107D7330F031BC0C0233420D8
:100B6000C080280A1F3F604040402010FF917B0C4E
:100B70001C232C80C060242A6025200B87EF2C18B2
:100B800018303068CF832C070F08900C30180F07EF
:100B9000D811300A3078CCC48484840C1C2A1E8F6F
:100BA0003C11190FD9199369481D0404FFFF057101
:100BB0002A0FD702100C680998D844642424FCF842
:100BC0006B196C0C2F1F101848093EB4C1940E0EFF
:080BD0000E2B1C1C2D1100006E
:04000005080000ED02
:00000001FF
