:020000040800F2
:10000000600600206D010008D5020008D10200083A
:10001000D3020008270200083D0600080000000087
:100020000000000000000000000000003D05000886
:10003000290200080000000023050008E905000867
:100040008701000887010008870100088701000870
:100050008701000887010008870100088701000860
:100060008701000887010008870100088701000850
:100070008701000887010008870100088701000840
:100080008701000887010008870100088701000830
:100090008701000887010008870100088701000820
:1000A0008701000887010008870100088701000810
:1000B0008701000887010008870100088701000800
:1000C00087010008870100088701000887010008F0
:1000D00087010008870100088701000887010008E0
:1000E00087010008870100088701000800F002F876
:1000F00000F02CF80AA090E8000C82448344AAF196
:100100000107DA4501D100F021F8AFF2090EBAE893
:100110000F0013F0010F18BFFB1A43F0010318473B
:1001200024050000340500000023002400250026DB
:10013000103A28BF78C1FBD8520728BF30C148BF4A
:100140000B6070471FB51FBD10B510BD00F031F832
:100150001146FFF7F7FF00F072FA00F04FF803B412
:10016000FFF7F2FF03BC00F057F800000948804792
:1001700009480047FEE7FEE7FEE7FEE7FEE7FEE789
:10018000FEE7FEE7FEE7FEE704480549054A064BA1
:1001900070470000ED050008ED0000086000002039
:1001A0006006002060020020600200207047704757
:1001B0007047754600F02CF8AE4605006946534678
:1001C00020F00700854618B020B5FFF7DDFFBDE839
:1001D00020404FF000064FF000074FF000084FF0AE
:1001E000000B21F00701AC46ACE8C009ACE8C0093F
:1001F000ACE8C009ACE8C0098D46704710B50446AC
:10020000AFF300802046BDE81040FFF7A8BF000014
:10021000004870470000002001491820ABBEFEE7EF
:10022000260002007047FEE77047F0B5CC78002248
:1002300004F00F03E40601D58C7823430C784FF0CB
:100240000F0C14F0FF0F4FF0010E1BD005680E8845
:100250000EFA02F42640A64210D196000CFA06F7D8
:1002600025EA070703FA06F5CE783D43282E02D08B
:10027000482E02D002E0446100E00461521C082ACA
:10028000E5D305600A88FF2A1CD94468002202F1E0
:1002900008060EFA06F50E882E40AE420ED19600E4
:1002A0000CFA06F7BC4303FA06F7CE783C43282E37
:1002B00000D14561CE78482E00D10561521C082A34
:1002C000E5D34460F0BD0AB10161704741617047F8
:1002D000FEE7FEE7704770B500250021284600F0D4
:1002E000EDF80024002000F00BF9641CE4B2802C2F
:1002F000F8D36D1CEDB2082DEFD370BDF8B5012118
:10030000042000F00FF914208DF8030003208DF86D
:1003100002000D4E4FF48064ADF80040694630464F
:10032000FFF783FF6500ADF8005069463046FFF7E0
:100330007CFF012221463046FFF7C5FF01222946F6
:100340003046FFF7C0FFF8BD000801402DE9F04737
:10035000144E002407464FF080084FF4006935150D
:1003600028FA04F23A4049463046FFF7ACFF012232
:1003700029463046FFF7A7FF002229463046FFF7FF
:10038000A2FF641CE4B2082CEAD3012229463046BD
:10039000FFF799FF29463046BDE8F0470022FFF7F6
:1003A00092BF00000008014070B501220B4DD4023D
:1003B00021462846FFF787FF01229602314628464C
:1003C000FFF781FF002221462846FFF77CFF3146D8
:1003D0002846BDE870400022FFF775BF00080140C5
:1003E00070B50A4D4FF40064002221462846FFF7FD
:1003F0006AFF012291022846FFF765FF2146284641
:10040000BDE870400122FFF75EBF00000008014018
:1004100010B500214FF47A720020401C9042FCD3AA
:10042000491C9142F8D3FFF769FFAE2000F057F85E
:10043000D52000F054F8802000F051F8A82000F0FA
:100440004EF83F2000F04BF8D32000F048F8002091
:1004500000F045F8402000F042F8A12000F03FF8FD
:10046000C82000F03CF8DA2000F039F8122000F043
:1004700036F8812000F033F8CF2000F030F8D92092
:1004800000F02DF8F12000F02AF8DB2000F027F82A
:10049000302000F024F8A42000F021F8A62000F07D
:1004A0001EF88D2000F01BF8142000F018F8AF2083
:1004B00000F015F8BDE81040FFF70DBF10B50C4671
:1004C00040F0B00000F00BF8102040EA141000F0EB
:1004D00006F804F00F00BDE81040AFF3008010B53F
:1004E0000446FFF761FF7820FFF730FF0020FFF799
:1004F0002DFF2046FFF72AFFBDE81040FFF770BF31
:1005000010B50446FFF750FF7820FFF71FFF40208B
:10051000FFF71CFF2046FFF719FFBDE81040FFF76B
:100520005FBF7047044A0029916901D0014300E090
:100530008143916170470000001002407047000045
:100540000CB50022264800920192016841F48031E6
:1005500001604FF4A063016801F40031019100993A
:10056000491C0091019911B900999942F3D1016890
:10057000890333D5012101911A490A6842F010021A
:100580000A600A6822F003020A600A6842F0020266
:100590000A604168416041684160416841F480619E
:1005A0004160416821F47C114160416841F4E811E7
:1005B0004160016841F08071016001688901FCD5EA
:1005C000416821F003014160416841F0020141604E
:1005D0004168C1F381010229FAD10CBD01920CBD21
:1005E0000010024000200240704700000F4810B584
:1005F000016841F00101016041680D4A114041600C
:1006000001680C4A11400160016821F480210160F9
:10061000416821F4FE0141604FF41F018160FFF742
:100620008FFF05494FF00060086010BD00100240C8
:100630000000FFF8FFFFF6FE08ED00E0FEE7FFF721
:10064000E7FEFEE7540600080000002060060000F8
:040650002801000875
:04000005080000ED02
:00000001FF
