:020000040800F2
:100000007806002089010008FD020008F9020008B6
:10001000FB02000843020008F1080008000000008D
:100020000000000000000000000000006906000859
:1000300045020008000000009F050008B107000805
:10004000A3010008A3010008A3010008A301000800
:10005000A3010008A3010008A3010008A3010008F0
:10006000A3010008A3010008A3010008A3010008E0
:10007000A3010008A3010008A3010008A3010008D0
:10008000A3010008A3010008A3010008A3010008C0
:10009000A3010008A3010008A3010008A3010008B0
:1000A000A3010008A3010008A3010008A3010008A0
:1000B000A3010008A3010008A3010008A301000890
:1000C000A3010008A3010008A3010008A301000880
:1000D000A3010008A3010008A3010008A301000870
:1000E000A3010008A3010008A301000800F002F822
:1000F00000F03AF80AA090E8000C82448344AAF188
:100100000107DA4501D100F02FF8AFF2090EBAE885
:100110000F0013F0010F18BFFB1A43F0010318473B
:10012000E407000004080000103A24BF78C878C132
:10013000FAD8520724BF30C830C144BF04680C60ED
:10014000704700000023002400250026103A28BF35
:1001500078C1FBD8520728BF30C148BF0B60704739
:100160001FB51FBD10B510BD00F031F81146FFF7E7
:10017000F7FF00F0BEFB00F04FF803B4FFF7F2FF0B
:1001800003BC00F057F800000948804709480047C1
:10019000FEE7FEE7FEE7FEE7FEE7FEE7FEE7FEE737
:1001A000FEE7FEE704480549054A064B7047000094
:1001B000B5070008ED000008780000207806002050
:1001C000780200207802002070477047704775461B
:1001D00000F02CF8AE4605006946534620F00700B3
:1001E000854618B020B5FFF7DDFFBDE820404FF091
:1001F00000064FF000074FF000084FF0000B21F011
:100200000701AC46ACE8C009ACE8C009ACE8C009DD
:10021000ACE8C0098D46704710B50446AFF30080C6
:100220002046BDE81040FFF7A8BF00000048704717
:100230001400002001491820ABBEFEE72600020092
:100240007047FEE770472DE9F0410022CC7804F0BA
:100250000F03E40601D58C7823430C784FF00F0789
:1002600014F0FF0F4FF0010C1CD005680CFA02F4DB
:100270000E882640A64211D1960007FA06F825EA14
:10028000080503FA06F848EA0505CE78282E02D0BC
:10029000482E02D002E0446100E00461521C082AAA
:1002A000E4D305600A88FF2A1ED94568002202F1BE
:1002B00008060CFA06F40E882640A64210D19600D5
:1002C00007FA06F825EA080503FA06F848EA0505DC
:1002D000CE78282E00D14461CE78482E00D104611A
:1002E000521C082AE3D34560BDE8F081002A01D002
:1002F0000161704741617047FEE7FEE7704700000B
:1003000038B510248DF8034003208DF802008020BA
:10031000ADF800000C4D69462846FFF794FF4021D8
:10032000ADF800108DF8034069462846FFF78BFFB3
:10033000002240212846FFF7D9FF012280212846CC
:10034000FFF7D4FF38BD0000000C014070B5002558
:100350000021284600F0F0F80024002000F00EF9FB
:10036000641CE4B2802CF8D36D1CEDB2082DEFD3E1
:1003700070BD0000F8B50121082000F011F914202B
:100380008DF8030003208DF802004FF48074ADF85F
:1003900000400B4E69463046FFF755FF6500ADF84B
:1003A000005069463046FFF74EFF01222146304695
:1003B000FFF79CFF012229463046FFF797FFF8BD63
:1003C000000C01402DE9F04707460024134D4FF083
:1003D00080094FF40078AE1529FA04F23A404146FC
:1003E0002846FFF783FF012231462846FFF77EFFAC
:1003F000002231462846FFF779FF641CE4B2082C3E
:10040000EAD3012231462846FFF770FF31462846DD
:10041000BDE8F0470022FFF769BF0000000C014073
:1004200070B501220B4D540221462846FFF75EFFAE
:100430000122160231462846FFF758FF00222146C6
:100440002846FFF753FF31462846BDE8704000229A
:10045000FFF74CBF000C014070B50A4D4FF400741B
:10046000002221462846FFF741FF012211022846BB
:10047000FFF73CFF21462846BDE870400122FFF708
:1004800035BF0000000C014010B500214FF47A7216
:100490000020401C9042FCD3491C9142F8D3FFF746
:1004A00069FFFFF72DFFAE2000F057F8D52000F0D0
:1004B00054F8802000F051F8A82000F04EF83F20BA
:1004C00000F04BF8D32000F048F8002000F045F889
:1004D000402000F042F8A12000F03FF8C82000F0D2
:1004E0003CF8DA2000F039F8122000F036F88120CC
:1004F00000F033F8CF2000F030F8D92000F02DF8CC
:10050000F12000F02AF8DB2000F027F8302000F07E
:1005100024F8A42000F021F8A62000F01EF88D2079
:1005200000F01BF8142000F018F8AF2000F015F8C8
:10053000BDE81040FFF70ABF10B50C4640F0B00010
:1005400000F00BF8102040EA141000F006F804F058
:100550000F00BDE81040AFF3008010B50446FFF770
:100560005FFF7820FFF72EFF0020FFF72BFF2046CC
:10057000FFF728FFBDE81040FFF76EBF10B5044637
:10058000FFF74EFF7820FFF71DFF4020FFF71AFF0F
:100590002046FFF717FFBDE81040FFF75DBF70472B
:1005A000054A002903D0916901439161704791691F
:1005B00081439161704700000010024010B5264A47
:1005C000516801F00C01254B002927D0042927D0C0
:1005D000082927D00360516801F0F0010909204B78
:1005E0005C5C0168E1404160546804F4E064240A02
:1005F0001C5D21FA04F48460546804F46054E40A35
:100600001B5DD940C160526802F44042920B144B0A
:100610001B1F9A5CB1FBF2F1016110BD0360DAE7C8
:100620000360D8E7516801F47011536803F4803314
:10063000022404EB914133B153689B0307D5094B66
:1006400059430160C7E7074B59430160C3E7034BB8
:1006500059430160BFE700000010024000127A0019
:100660000400002000093D007047000010B586B06E
:1006700001218803FFF794FF01210420FFF790FF79
:1006800018208DF817004FF40070ADF81400032007
:100690008DF8160005A90F48FFF7D5FD4FF4165049
:1006A00001900020ADF810000821ADF80E10ADF853
:1006B0000C00ADF80A00ADF80800074C01A920466F
:1006C00000F0B4F80121204600F09CF806B00120AB
:1006D00010BD0000000801400038014010B5064C74
:1006E00081B2204600F000F98021204600F096F803
:1006F0000028F9D010BD000000380140AFF30080A1
:100700000CB50022019200922748016841F4803123
:1007100001604FF4A063016801F400310091019978
:10072000491C0191009911B901999942F3D10168CD
:10073000890302D50121009100E00092009901296E
:1007400030D11A490A6842F010020A600A6822F0A1
:1007500003020A600A6842F002020A6041684160CE
:1007600041684160416841F480614160416821F421
:100770007C114160416841F4E8114160016841F039
:100780008071016001688901FCD5416821F0030195
:100790004160416841F0020141604168C1F381015B
:1007A0000229FAD10CBD00000010024000200240D6
:1007B0007047000010B50F48016841F00101016069
:1007C00041680D4A1140416001680C4A11400160C6
:1007D000016821F480210160416821F4FE0141603B
:1007E0004FF41F018160FFF789FF05494FF000605A
:1007F000086010BD001002400000FFF8FFFFF6FE89
:1008000008ED00E0002904D0818941F40051818184
:100810007047818921F40051818170470246002090
:1008200012880A4200D001207047000030B585B020
:1008300004460D46208A4CF6FF710840E9880143C2
:100840002182A0894EF6F3110840A9882A89114314
:100850006A8902431143A181A08A4FF6FF410840F3
:10086000A9890143A1826846FFF7A8FE1D4884427A
:1008700001D1039800E00298A189090408D500EB92
:10088000C00101EB001029684900B0FBF1F007E05E
:1008900000EBC00101EB001029688900B0FBF1F00A
:1008A0006422B0FBF2F109010B096FF018056B43EC
:1008B00000EB8300A3891D044FF0320307D503EB3F
:1008C000C000B0FBF2F000F00700084306E003EBC5
:1008D0000010B0FBF2F000F00F000843208105B0DB
:1008E00030BD000000380140C1F30801818070472D
:1008F000FEE7FFF7C9FDFFF7B9FE4120FFF7EEFE67
:10090000FEE7000024090008000000201400000099
:1009100028010008380900081400002064060000BF
:10092000440100080204060800000000010203045C
:08093000010203040607080997
:04000005080000ED02
:00000001FF
