:020000040800F2
:1000000068060020890100080B04000807040008A6
:1000100009040008430200082D0E0008000000003B
:10002000000000000000000000000000510800086F
:100030004502000800000000150800080909000832
:10004000A3010008A3010008A3010008A301000800
:10005000A3010008A3010008A3010008A3010008F0
:10006000A3010008A3010008A3010008A3010008E0
:10007000A3010008A3010008A3010008A3010008D0
:10008000A3010008A3010008A3010008A3010008C0
:10009000A3010008A3010008A3010008A3010008B0
:1000A000A3010008A3010008A3010008A3010008A0
:1000B000410B0008A3010008A3010008A3010008E8
:1000C000A3010008A3010008A3010008A301000880
:1000D000A3010008A3010008A3010008A301000870
:1000E00049020008A3010008A301000800F002F87B
:1000F00000F03AF80AA090E8000C82448344AAF188
:100100000107DA4501D100F02FF8AFF2090EBAE885
:100110000F0013F0010F18BFFB1A43F0010318473B
:100120003413000054130000103A24BF78C878C17B
:10013000FAD8520724BF30C830C144BF04680C60ED
:10014000704700000023002400250026103A28BF35
:1001500078C1FBD8520728BF30C148BF0B60704739
:100160001FB51FBD10B510BD00F031F81146FFF7E7
:10017000F7FF00F05DFE00F04FF803B4FFF7F2FF69
:1001800003BC00F057F800000948804709480047C1
:10019000FEE7FEE7FEE7FEE7FEE7FEE7FEE7FEE737
:1001A000FEE7FEE704480549054A064B7047000094
:1001B0000D090008ED000008680000206806002016
:1001C000680200206802002070477047704775463B
:1001D00000F02CF8AE4605006946534620F00700B3
:1001E000854618B020B5FFF7DDFFBDE820404FF091
:1001F00000064FF000074FF000084FF0000B21F011
:100200000701AC46ACE8C009ACE8C009ACE8C009DD
:10021000ACE8C0098D46704710B50446AFF30080C6
:100220002046BDE81040FFF7A8BF00000048704717
:100230000400002001491820ABBEFEE726000200A2
:100240007047FEE77047000010B54FF48044204629
:1002500000F014F8012808D104480188491C0180E5
:100260002046BDE8104000F003B810BD000000209B
:100270000149086070470000140401400146002055
:10028000054A12680A40044B14331B680B4202D023
:10029000002A00D0012070470004014070B5054DD0
:1002A000284600F08EFC04460021284600F0F5FCAC
:1002B00020B270BD0004004030B587B0012102209B
:1002C00000F0AAFA0121042000F0B4FA48208DF8C9
:1002D0001B00C020ADF8180003208DF81A0006A9F5
:1002E0001A4800F037F80024ADF81240ADF80E407F
:1002F0004FF6FF70ADF81000ADF80C408DF81440CB
:10030000134D03A9284600F0F3FC684600F0AEFC4C
:10031000ADF800400F24ADF808406946284600F0CB
:100320005FFC0421ADF80010ADF80840694628468E
:1003300000F056FC00231A460321284600F028FC52
:100340000121284600F018FC07B030BD000801402C
:10035000000400402DE9F0410022CC7804F00F03A6
:10036000E40601D58C7823430C784FF00F0714F086
:10037000FF0F4FF0010C1CD005680CFA02F40E8838
:100380002640A64211D1960007FA06F825EA08058C
:1003900003FA06F848EA0505CE78282E02D0482E42
:1003A00002D002E0446100E00461521C082AE4D358
:1003B00005600A88FF2A1ED94568002202F1080656
:1003C0000CFA06F40E882640A64210D1960007FAD1
:1003D00006F825EA080503FA06F848EA0505CE7886
:1003E000282E00D14461CE78482E00D10461521CE1
:1003F000082AE3D34560BDE8F081002A01D00161FD
:10040000704741617047FEE7FEE7704770B50F2304
:10041000C27801260178002A1ED0144A126802F41C
:10042000E062C2F5E062120AC2F10404D3404578EA
:10043000A54082781A402A43120101F1E02181F897
:100440000024007800F01F018E404009800000F178
:10045000E020C0F8006170BD01F01F00864048092F
:10046000800000F1E020C0F8806170BD0CED00E07C
:100470000249084302490860704700000000FA057D
:100480000CED00E038B510248DF8034003208DF802
:1004900002008020ADF800000C4D69462846FFF7A9
:1004A00059FF4021ADF800108DF8034069462846F9
:1004B000FFF750FF002240212846FFF79EFF012250
:1004C00080212846FFF799FF38BD0000000C01404D
:1004D00070B500250021284600F0F8F8002400201F
:1004E00000F087F9641CE4B2802CF8D36D1CEDB2E7
:1004F000082DEFD370BD0000F8B50121082000F0F1
:1005000099F914208DF8030003208DF802004FF4B0
:100510008074ADF800400B4E69463046FFF71AFF75
:100520006500ADF8005069463046FFF713FF012221
:1005300021463046FFF761FF012229463046FFF78A
:100540005CFFF8BD000C01402DE9F0470746002490
:10055000134D4FF080094FF40078AE1529FA04F2DC
:100560003A4041462846FFF748FF012231462846D7
:10057000FFF743FF002231462846FFF73EFF641C89
:10058000E4B2082CEAD3012231462846FFF735FFB2
:1005900031462846BDE8F0470022FFF72EBF000095
:1005A000000C014070B501220B4D54022146284633
:1005B000FFF723FF0122160231462846FFF71DFFF1
:1005C000002221462846FFF718FF31462846BDE89D
:1005D00070400022FFF711BF000C014070B50A4DBA
:1005E0004FF40074002221462846FFF706FF01223F
:1005F00011022846FFF701FF21462846BDE870405A
:100600000122FFF7FABE0000000C014010B50021E6
:100610004FF47A720020401C9042FCD3491C914256
:10062000F8D3FFF769FFFFF72DFFAE2000F0D0F8F9
:10063000D52000F0CDF8802000F0CAF8A82000F006
:10064000C7F83F2000F0C4F8D32000F0C1F8002024
:1006500000F0BEF8402000F0BBF8A12000F0B8F890
:10066000C82000F0B5F8DA2000F0B2F8122000F04F
:10067000AFF8812000F0ACF8CF2000F0A9F8D92025
:1006800000F0A6F8F12000F0A3F8DB2000F0A0F8BD
:10069000302000F09DF8A42000F09AF8A62000F089
:1006A00097F88D2000F094F8142000F091F8AF2016
:1006B00000F08EF8BDE81040FFF70ABF03460120A6
:1006C00000E05843491E4A1CFBD1704710B50C4648
:1006D00040F0B00000F07CF8102040EA141000F068
:1006E00077F804F00F00BDE8104000F071B800008A
:1006F0002DE9F0411546491E461ECF007006F9B29D
:10070000000EFFF7E3FF00240E48203D00EB051527
:10071000285D00F06EF8641CE4B2082CF8D30120C8
:1007200000EB4600F9B2C0B2FFF7D0FF0024281951
:10073000007A00F05EF8641CE4B2082CF7D3BDE840
:10074000F0810000640E00082DE9F04782468946DA
:1007500017469846002F05DB2B2249465046FFF7E7
:10076000C7FF05E02D2249465046FFF7C1FF7F42F3
:1007700000240A2515E0A8EB0401491E0A20FFF712
:100780009DFFB7FBF0F6B6FBF5F005FB106209EB39
:100790000400401CC1B230325046FFF7A9FF641C70
:1007A000E4B24445E7D3BDE8F0872DE9F0410746C0
:1007B0000D461646002406E02819C1B23846FFF758
:1007C00097FF641CE4B2325D002AF5D1BDE8F081E8
:1007D00010B50446FFF7E6FE7820FFF7B5FE0020CF
:1007E000FFF7B2FE2046FFF7AFFEBDE81040FFF76F
:1007F000F5BE10B50446FFF7D5FE7820FFF7A4FE3E
:100800004020FFF7A1FE2046FFF79EFEBDE8104006
:10081000FFF7E4BE70470000054A002903D0D16904
:100820000143D1617047D1698143D16170470000B4
:1008300000100240054A002903D0916901439161EB
:100840007047916981439161704700000010024038
:10085000704700F001B800000CB500220192009230
:100860002748016841F4803101604FF4A0630168BA
:1008700001F4003100910199491C0191009911B9CD
:1008800001999942F3D10168890302D501210091B0
:1008900000E000920099012930D11A490A6842F01B
:1008A00010020A600A6822F003020A600A6842F035
:1008B00002020A604168416041684160416841F458
:1008C00080614160416821F47C114160416841F4DC
:1008D000E8114160016841F080710160016889019F
:1008E000FCD5416821F003014160416841F00201FB
:1008F00041604168C1F381010229FAD10CBD0000B9
:1009000000100240002002407047000010B50F4860
:10091000016841F00101016041680D4A11404160E8
:1009200001680C4A11400160016821F480210160D6
:10093000416821F4FE0141604FF41F018160FFF71F
:1009400088FF05494FF00060086010BD00100240AC
:100950000000FFF8FFFFF6FE08ED00E070B5048C24
:1009600024F001040484058B048C25F0F3054FF674
:10097000FF7606EA031313432B43104A90420ED02E
:100980000F4A90420BD0B0F1804F08D00D4A9042F0
:1009900005D00D4A904202D00C4A904205D124F075
:1009A00002020A4342F0010104E024F00A020A4371
:1009B00042F001010383018470BD0000002C01405E
:1009C000003401400004004000080040000C0040DA
:1009D000F0B5048C24F010040484068B048C4FF6CC
:1009E000FF7505EA011726F4734605EA033333431E
:1009F00005EA02221A43104B98420ED00F4B984240
:100A00000BD0B0F1804F08D00D4B984205D00D4B64
:100A1000984202D00C4B984205D124F02001394372
:100A200041F0100104E024F0A0030B4343F0100157
:100A300002830184F0BD0000002C0140003401401D
:100A40000004004000080040000C0040F0B5048C99
:100A500024F480740484858B048C4FF6FF7707EAB6
:100A6000012625F0F30507EA031313432B43104A2D
:100A700090420ED00F4A90420BD0B0F1804F08D078
:100A80000D4A904205D00D4A904202D00C4A904245
:100A900005D124F40071314341F4807104E024F461
:100AA00020620A4342F4807183830184F0BD000018
:100AB000002C0140003401400004004000080040C8
:100AC000000C0040F0B5048C24F480540484868B20
:100AD000048C4FF6FF7505EA013726F4734605EAE4
:100AE0000222324305EA03331343104A90420ED0E8
:100AF0000F4A90420BD0B0F1804F08D00D4A90427F
:100B000005D00D4A904202D00C4A904205D124F4FF
:100B10000051394341F4805104E024F402420A4375
:100B200042F4805183830184F0BD0000002C014019
:100B3000003401400004004000080040000C004068
:100B400010B501218C07204600F03DF8012809D19D
:100B5000FFF7A4FB044908802046BDE810400121AE
:100B600000F007B810BD000002000020C943018258
:100B70007047C94301827047002904D0018841F0C1
:100B8000010101807047018821F001010180704757
:100B900070B50589048B068C25F007050D434FF6CB
:100BA000FC410C4040F201110C4326F022064FF6A6
:100BB000FF7101EA0311114331430581048301846C
:100BC00070BD808C704702460020138A0B409289CA
:100BD0000A40002B02D0002A00D0012070470000FC
:100BE00070B505460C461D48854209D01C48854213
:100BF00006D0B5F1804F03D01A48854200D01A487C
:100C000020886188A288238960B1042813D008282D
:100C10001AD02846FFF756FFE1882846BDE8704005
:100C200000F059B82846FFF799FEE1882846BDE84C
:100C3000704000F034B82846FFF7CAFEE188284625
:100C4000BDE8704000F033B82846FFF7FFFEE188AA
:100C50002846BDE8704000F036B80000002C014086
:100C600000340140000400400008004000210180E1
:100C7000418001228280C18001817047002A03D017
:100C800082890A438281704782898A4382817047C0
:100C9000018921F007010181704781847047028B2F
:100CA00022F00C020283028B0A4302837047028BFC
:100CB00022F440620283028B4FF6FF7303EA0121A4
:100CC0000A4302837047828B22F00C028283828B5C
:100CD0000A4382837047828B22F440628283828B34
:100CE0004FF6FF7303EA01210A4382837047000035
:100CF00030B502881B4C1C4DA0420DD0A8420BD031
:100D0000B0F1804F08D0194B984205D0184B98424B
:100D100002D0184B984203D122F070034A881A433C
:100D2000154B984206D0154B984203D022F44073DD
:100D3000CA881A4302808A8882850A880285A0426E
:100D40000AD0A84208D00E4A904205D00D4A9042DF
:100D500002D00D4A904201D1097A01860121818297
:100D600030BD0000002C0140003401400004004070
:100D700000080040000C004000100040001400403B
:100D800000400140004401400048014030B585B0BA
:100D900001210846FFF740FD01210420FFF74AFD2D
:100DA00048208DF813000124ADF8104003208DF881
:100DB000120004A91C48FFF7CDFAA5072846FFF743
:100DC00067FF0021ADF80A10ADF8061042F20F706F
:100DD000ADF8080041F61F40ADF804008DF80C1086
:100DE00001A92846FFF784FF01212846FFF7BEFE30
:100DF000012211462846FFF741FF4FF4A060FFF79C
:100E000037FB1C208DF800008DF8034002208DF880
:100E100001008DF802406846FFF7F8FA01212846E4
:100E2000FFF7AAFE05B030BD00080140FEE7000054
:100E3000FFF7ECFBFFF740FAFFF7A8FF012106A23E
:100E40000846FFF7B2FC064C05230721B4F9002041
:100E50000120FFF779FCF7E753706565643A0000FD
:100E60000200002000000000000000000000000060
:100E700000000000000000F8000000000000003347
:100E80003000000000100C06100C060000000000EE
:100E90000000000040C07840C0784000043F0404D7
:100EA0003F040400007088FC08300000001820FF98
:100EB000211E0000F008F000E018000000211C03D3
:100EC0001E211E0000F00888700000001E2123244F
:100ED0001927211010160E0000000000000000006D
:100EE00000000000000000E01804020000000007FD
:100EF0001820400000020418E00000000040201804
:100F000007000000404080F0804040000202010FD6
:100F100001020200000000F0000000000101011FBA
:100F200001010100000000000000000080B070001E
:100F300000000000000000000000000000010101AE
:100F4000010101010000000000000000003030003D
:100F50000000000000000000806018040060180617
:100F60000100000000E010080810E000000F102051
:100F700020100F00001010F8000000000020203F9B
:100F80002020000000700808088870000030282425
:100F900022213000003008888848300000182020C6
:100FA00020110E000000C02010F8000000070424EB
:100FB000243F240000F80888880808000019212030
:100FC00020110E0000E0108888180000000F11208A
:100FD00020110E0000380808C83808000000003F43
:100FE000000000000070880808887000001C2221A2
:100FF00021221C0000E010080810E000000031224F
:1010000022110F00000000C0C000000000000030EE
:101010003000000000000080000000000000806040
:1010200000000000000080402010080000010204C1
:1010300008102000404040404040400004040404A8
:101040000404040000081020408000000020100864
:1010500004020100007048080808F0000000003099
:1010600036010000C030C828E810E0000718272427
:1010700023140B000000C038E0000000203C2302D5
:101080000227382008F8888888700000203F202038
:1010900020110E00C030080808083800071820206A
:1010A0002010080008F808080810E000203F202061
:1010B00020100F0008F88888E8081000203F202042
:1010C0002320180008F88888E8081000203F200036
:1010D00003000000C030080808380000071820206E
:1010E000221E020008F808000008F808203F21012D
:1010F00001213F20000808F8080800000020203FD8
:101100002020000000000808F8080800C080808047
:101110007F00000008F888C028180800203F200140
:101120002638200008F8080000000000203F20209A
:101130002020300008F8F800F8F80800203F003FB1
:10114000003F200008F830C00008F808203F2000C9
:1011500007183F00E01008080810E0000F102020DA
:1011600020100F0008F808080808F000203F2101AF
:1011700001010000E01008080810E0000F18242406
:1011800038504F0008F8888888887000203F200079
:10119000030C30200070880808083800003820212F
:1011A00021221C00180808F8080818000000203F39
:1011B0002000000008F808000008F808001F2020A0
:1011C00020201F000878880000C838080000073871
:1011D0000E010000F80800F80008F800033C0700C2
:1011E000073C0300081868808068180820302C032A
:1011F000032C30200838C800C83808000000203F01
:101200002000000010080808C838080020382621EF
:1012100020201800000000FE020202000000007FF3
:1012200040404000000C30C0000000000000000101
:101230000638C00000020202FE00000000404040EC
:101240007F00000000000402020204000000000011
:10125000000000000000000000000000808080808E
:101260008080808000020204000000000000000076
:10127000000000000000808080800000001924220F
:1012800022223F2008F8008080000000003F11204B
:1012900020110E000000008080800000000E112050
:1012A00020201100000000808088F800000E11202E
:1012B00020103F200000808080800000001F22223C
:1012C00022221300008080F0888888180020203FA8
:1012D000202000000000808080808000006B9494BB
:1012E0009493600008F8008080800000203F210077
:1012F00000203F2000809898000000000020203F40
:1013000020200000000000809898000000C080802D
:10131000807F000008F8000080808000203F2402C9
:101320002D302000000808F8000000000020203FB9
:10133000202000008080808080808000203F20006E
:101340003F20003F8080008080800000203F2100FF
:1013500000203F200000808080800000001F2020AF
:1013600020201F00808000808000000080FFA120DE
:1013700020110E000000008080808000000E1120EF
:1013800020A0FF80808080008080800020203F217E
:101390002000010000008080808080000033242431
:1013A00024241900008080E0808000000000001FDD
:1013B000202000008080000000808000001F20208E
:1013C00020103F20808080000080808000010E304F
:1013D0000806010080800080008080800F300C03B0
:1013E0000C300F0000808000808080000020312EB3
:1013F0000E312000808080000080808080818E708F
:101400001806010000808080808080000021302C40
:101410002221300000000000807C02020000000059
:10142000003F404000000000FF00000000000000FE
:10143000FF0000000002027C800000000040403FEE
:101440000000000000060101020204040000000088
:1014500000000000741400080000002004000000D8
:101460002801000878140008040000206406000029
:08147000440100080000000027
:04000005080000ED02
:00000001FF
