:020000040800F2
:100000006806002089010008AB040008A704000866
:10001000A904000843020008C1090008000000000C
:10002000000000000000000000000000B50800080B
:10003000C902000800000000790800086D090008E6
:10004000A3010008A3010008A3010008A301000800
:10005000A3010008A3010008A3010008A3010008F0
:10006000A3010008A3010008A3010008A3010008E0
:10007000A3010008A3010008A3010008A3010008D0
:10008000A3010008A3010008A3010008A3010008C0
:10009000A3010008A3010008A3010008A3010008B0
:1000A000A3010008A3010008A3010008A3010008A0
:1000B000A3010008A3010008A3010008A301000890
:1000C000A3010008A3010008A3010008A301000880
:1000D000A3010008A3010008A3010008A301000870
:1000E00005030008A3010008A301000800F002F8BE
:1000F00000F03AF80AA090E8000C82448344AAF188
:100100000107DA4501D100F02FF8AFF2090EBAE885
:100110000F0013F0010F18BFFB1A43F0010318473B
:10012000040F0000240F0000103A24BF78C878C1E3
:10013000FAD8520724BF30C830C144BF04680C60ED
:10014000704700000023002400250026103A28BF35
:1001500078C1FBD8520728BF30C148BF0B60704739
:100160001FB51FBD10B510BD00F031F81146FFF7E7
:10017000F7FF00F027FC00F04FF803B4FFF7F2FFA1
:1001800003BC00F057F800000948804709480047C1
:10019000FEE7FEE7FEE7FEE7FEE7FEE7FEE7FEE737
:1001A000FEE7FEE704480549054A064B7047000094
:1001B00071090008ED0000086800002068060020B2
:1001C000680200206802002070477047704775463B
:1001D00000F02CF8AE4605006946534620F00700B3
:1001E000854618B020B5FFF7DDFFBDE820404FF091
:1001F00000064FF000074FF000084FF0000B21F011
:100200000701AC46ACE8C009ACE8C009ACE8C009DD
:10021000ACE8C0098D46704710B50446AFF30080C6
:100220002046BDE81040FFF7A8BF00000048704717
:100230000400002001491820ABBEFEE726000200A2
:100240007047FEE70148008870470000000000206A
:100250001FB50121082000F01FFB0121084600F016
:100260001BFB48208DF80F004FF48044ADF80C4084
:1002700003208DF80E0003A9124800F0BBF80E21F0
:10028000012000F0A3F8019401248DF80A40002019
:100290008DF8080010208DF8090001A800F05CF826
:1002A0004FF4A06000F034F928208DF800008DF89C
:1002B00003408DF801408DF80240684600F0F6F8E2
:1002C0001FBD0000000C0140704700B502464FF40E
:1002D0007A7302E0184600F004F8521E501CF9D15F
:1002E00000BD00EBC000C1004FF0E02041610021E3
:1002F0008161052101610169C903FCD50421016106
:100300007047000010B54FF48044204600F014F808
:10031000012808D104480188491C01802046BDE815
:10032000104000F003B810BD000000200149086033
:10033000704700001404014001460020054A12687D
:100340000A40044B14331B680B4202D0002A00D031
:10035000012070470004014030B51B4A83790168D1
:10036000002B2AD013688B431360111D0B6804689F
:10037000A3430B60017911440B68046823430B60AD
:10038000114C08342168036899432160231D1968C2
:100390000568A94319604179102905D011440A68FC
:1003A000006802430A6030BD216802681143216081
:1003B000196800680143196030BD00791044026873
:1003C0008A43026030BD00000004014010B58A0776
:1003D000120F0F23934021F00304054921448C6838
:1003E0009C438C608B68904003438B6010BD000081
:1003F000000001402DE9F0410022CC7804F00F0309
:10040000E40601D58C7823430C784FF00F0714F0E5
:10041000FF0F4FF0010C1CD005680CFA02F40E8897
:100420002640A64211D1960007FA06F825EA0805EB
:1004300003FA06F848EA0505CE78282E02D0482EA1
:1004400002D002E0446100E00461521C082AE4D3B7
:1004500005600A88FF2A1ED94568002202F10806B5
:100460000CFA06F40E882640A64210D1960007FA30
:1004700006F825EA080503FA06F848EA0505CE78E5
:10048000282E00D14461CE78482E00D10461521C40
:10049000082AE3D34560BDE8F081002A01D001615C
:1004A000704741617047FEE7FEE7704770B50F2364
:1004B000C27801260178002A1ED0144A126802F47C
:1004C000E062C2F5E062120AC2F10404D34045784A
:1004D000A54082781A402A43120101F1E02181F8F7
:1004E0000024007800F01F018E404009800000F1D8
:1004F000E020C0F8006170BD01F01F00864048098F
:10050000800000F1E020C0F8806170BD0CED00E0DB
:100510000249084302490860704700000000FA05DC
:100520000CED00E070B500250021284600F0F6F83B
:100530000024002000F074F9641CE4B2802CF8D38D
:100540006D1CEDB2082DEFD370BD0000F8B5012190
:10055000082000F0A1F914208DF8030003208DF885
:1005600002004FF48074ADF800400B4E69463046EF
:10057000FFF740FF6500ADF8005069463046FFF7D1
:1005800039FF012221463046FFF787FF0122294625
:100590003046FFF782FFF8BD000C01402DE9F0471F
:1005A00007460024134D4FF080094FF40078AE1534
:1005B00029FA04F23A4041462846FFF76EFF01222D
:1005C00031462846FFF769FF002231462846FFF7EB
:1005D00064FF641CE4B2082CEAD3012231462846A9
:1005E000FFF75BFF31462846BDE8F0470022FFF7E2
:1005F00054BF0000000C014070B501220B4D5402A5
:1006000021462846FFF749FF0122160231462846B7
:10061000FFF743FF002221462846FFF73EFF314601
:100620002846BDE870400022FFF737BF000C0140AC
:1006300070B50A4D4FF40074002221462846FFF79A
:100640002CFF012211022846FFF727FF21462846EA
:10065000BDE870400122FFF720BF0000000C014000
:1006600010B500214FF47A720020401C9042FCD358
:10067000491C9142F8D3FFF769FFAE2000F0BFF8A4
:10068000D52000F0BCF8802000F0B9F8A82000F0D8
:10069000B6F83F2000F0B3F8D32000F0B0F8002007
:1006A00000F0ADF8402000F0AAF8A12000F0A7F873
:1006B000C82000F0A4F8DA2000F0A1F8122000F021
:1006C0009EF8812000F09BF8CF2000F098F8D92008
:1006D00000F095F8F12000F092F8DB2000F08FF8A0
:1006E000302000F08CF8A42000F089F8A62000F05B
:1006F00086F88D2000F083F8142000F080F8AF20F9
:1007000000F07DF8BDE81040FFF70CBF0346012064
:1007100000E05843491E4A1CFBD1704710B50C46F7
:1007200040F0B00000F06BF8102040EA141000F028
:1007300066F804F00F00BDE8104000F060B800005B
:100740002DE9F0411546491E461ECF007006F9B24C
:10075000000EFFF7E3FF00240E48203D00EB0515D7
:10076000285D00F05DF8641CE4B2082CF8D3012089
:1007700000EB4600F9B2C0B2FFF7D0FF0024281901
:10078000007A00F04DF8641CE4B2082CF7D3BDE801
:10079000F0810000340A00082DE9F04781460F4639
:1007A00090461E4600240A2512E0311B491E0A20ED
:1007B000FFF7ACFFB8FBF0F2B2FBF5F005FB10223F
:1007C0003819C1B230324846FFF7BAFF641CE4B2B0
:1007D000B442EAD3BDE8F0872DE9F04107460D4663
:1007E0001646002406E02819C1B23846FFF7A8FFD4
:1007F000641CE4B2325D002AF5D1BDE8F08110B589
:100800000446FFF7F9FE7820FFF7C8FE0020FFF747
:10081000C5FE2046FFF7C2FEBDE81040FFF708BF47
:1008200010B50446FFF7E8FE7820FFF7B7FE40203A
:10083000FFF7B4FE2046FFF7B1FEBDE81040FFF71A
:10084000F7BE00000A4B1A6822F0030202431A6046
:100850000848026842F004020260012905D020BF66
:10086000016821F004010160704730BFF8E7000023
:100870000070004010ED00E070470000054A0029BC
:1008800003D0D1690143D1617047D1698143D161FE
:100890007047000000100240054A002903D091690A
:1008A00001439161704791698143916170470000F4
:1008B00000100240704700F001B800000CB50022A3
:1008C000019200922748016841F4803101604FF4A1
:1008D000A063016801F4003100910199491C019164
:1008E000009911B901999942F3D10168890302D5A0
:1008F0000121009100E000920099012930D11A49AC
:100900000A6842F010020A600A6822F003020A60D4
:100910000A6842F002020A60416841604168416031
:10092000416841F480614160416821F47C1141607B
:10093000416841F4E8114160016841F08071016053
:1009400001688901FCD5416821F0030141604168DB
:1009500041F0020141604168C1F381010229FAD1ED
:100960000CBD000000100240002002407047000053
:1009700010B50F48016841F00101016041680D4A5E
:100980001140416001680C4A11400160016821F486
:1009900080210160416821F4FE0141604FF41F0194
:1009A0008160FFF788FF05494FF00060086010BDC7
:1009B000001002400000FFF8FFFFF6FE08ED00E027
:1009C000FEE70000FFF74CFEFFF742FC012108079D
:1009D000FFF754FF012111A20846FFF7FDFEFFF7C4
:1009E00031FC0246052307210120FFF7D5FE0DA2A9
:1009F00001210220FFF7F0FE6420FFF766FC0BA246
:100A000001210220FFF7E8FE6420FFF75EFC0121D0
:100A10000020FFF717FFFFF7ABFFE0E7436F756EAE
:100A2000743A000052756E6E696E670020202020B7
:100A30002020200000000000000000000000000056
:100A400000000000000000F800000000000000337B
:100A50003000000000100C06100C06000000000022
:100A60000000000040C07840C0784000043F04040B
:100A70003F040400007088FC08300000001820FFCC
:100A8000211E0000F008F000E018000000211C0307
:100A90001E211E0000F00888700000001E21232483
:100AA0001927211010160E000000000000000000A1
:100AB00000000000000000E0180402000000000731
:100AC0001820400000020418E00000000040201838
:100AD00007000000404080F0804040000202010F0B
:100AE00001020200000000F0000000000101011FEF
:100AF00001010100000000000000000080B0700053
:100B000000000000000000000000000000010101E2
:100B10000101010100000000000000000030300071
:100B2000000000000000000080601804006018064B
:100B30000100000000E010080810E000000F102085
:100B400020100F00001010F8000000000020203FCF
:100B50002020000000700808088870000030282459
:100B600022213000003008888848300000182020FA
:100B700020110E000000C02010F80000000704241F
:100B8000243F240000F80888880808000019212064
:100B900020110E0000E0108888180000000F1120BE
:100BA00020110E0000380808C83808000000003F77
:100BB000000000000070880808887000001C2221D6
:100BC00021221C0000E010080810E0000000312283
:100BD00022110F00000000C0C00000000000003023
:100BE0003000000000000080000000000000806075
:100BF00000000000000080402010080000010204F6
:100C000008102000404040404040400004040404DC
:100C10000404040000081020408000000020100898
:100C200004020100007048080808F00000000030CD
:100C300036010000C030C828E810E000071827245B
:100C400023140B000000C038E0000000203C230209
:100C50000227382008F8888888700000203F20206C
:100C600020110E00C030080808083800071820209E
:100C70002010080008F808080810E000203F202095
:100C800020100F0008F88888E8081000203F202076
:100C90002320180008F88888E8081000203F20006A
:100CA00003000000C03008080838000007182020A2
:100CB000221E020008F808000008F808203F210161
:100CC00001213F20000808F8080800000020203F0C
:100CD0002020000000000808F8080800C08080807C
:100CE0007F00000008F888C028180800203F200175
:100CF0002638200008F8080000000000203F2020CF
:100D00002020300008F8F800F8F80800203F003FE5
:100D1000003F200008F830C00008F808203F2000FD
:100D200007183F00E01008080810E0000F1020200E
:100D300020100F0008F808080808F000203F2101E3
:100D400001010000E01008080810E0000F1824243A
:100D500038504F0008F8888888887000203F2000AD
:100D6000030C302000708808080838000038202163
:100D700021221C00180808F8080818000000203F6D
:100D80002000000008F808000008F808001F2020D4
:100D900020201F000878880000C8380800000738A5
:100DA0000E010000F80800F80008F800033C0700F6
:100DB000073C0300081868808068180820302C035E
:100DC000032C30200838C800C83808000000203F35
:100DD0002000000010080808C83808002038262124
:100DE00020201800000000FE020202000000007F28
:100DF00040404000000C30C0000000000000000136
:100E00000638C00000020202FE0000000040404020
:100E10007F00000000000402020204000000000045
:100E200000000000000000000000000080808080C2
:100E300080808080000202040000000000000000AA
:100E40000000000000008080808000000019242243
:100E500022223F2008F8008080000000003F11207F
:100E600020110E000000008080800000000E112084
:100E700020201100000000808088F800000E112062
:100E800020103F200000808080800000001F222270
:100E900022221300008080F0888888180020203FDC
:100EA000202000000000808080808000006B9494EF
:100EB0009493600008F8008080800000203F2100AB
:100EC00000203F2000809898000000000020203F74
:100ED00020200000000000809898000000C0808062
:100EE000807F000008F8000080808000203F2402FE
:100EF0002D302000000808F8000000000020203FEE
:100F0000202000008080808080808000203F2000A2
:100F10003F20003F8080008080800000203F210033
:100F200000203F200000808080800000001F2020E3
:100F300020201F00808000808000000080FFA12012
:100F400020110E000000008080808000000E112023
:100F500020A0FF80808080008080800020203F21B2
:100F60002000010000008080808080000033242465
:100F700024241900008080E0808000000000001F11
:100F8000202000008080000000808000001F2020C2
:100F900020103F20808080000080808000010E3083
:100FA0000806010080800080008080800F300C03E4
:100FB0000C300F0000808000808080000020312EE7
:100FC0000E312000808080000080808080818E70C3
:100FD0001806010000808080808080000021302C75
:100FE0002221300000000000807C0202000000008E
:100FF000003F404000000000FF0000000000000033
:10100000FF0000000002027C800000000040403F22
:1010100000000000000601010202040400000000BC
:101020000000000044100008000000200400000040
:101030002801000848100008040000206406000091
:0810400044010008000000005B
:04000005080000ED02
:00000001FF
